:020000040800F2
:10000000F00E00202D020008ED0C0008950A0008F3
:10001000E90C0008390900084F1C00080000000026
:1000200000000000000000000000000005170008AC
:10003000790900080000000065120008191800087E
:100040004702000847020008470200089D15000803
:10005000470200084702000847020008470200085C
:10006000470200084702000847020008470200084C
:10007000470200084702000847020008470200083C
:10008000470200084702000847020008470200082C
:10009000470200084702000847020008470200081C
:1000A000470200084702000847020008470200080C
:1000B00047020008470200087D18000847020008B0
:1000C00047020008470200084702000847020008EC
:1000D000470200082D1A00084702000847020008DE
:1000E00047020008470200084702000847020008CC
:1000F00047020008470200084702000847020008BC
:1001000047020008470200084702000847020008AB
:10011000470200084702000847020008470200089B
:10012000470200084702000847020008470200088B
:1001300000F002F800F06BF80AA090E8000C82448E
:100140008344AAF10107DA4501D100F060F8AFF26B
:10015000090EBAE80F0013F0010F18BFFB1A43F0A5
:1001600001031847C44C0000E44C00000A444FF05F
:10017000000C10F8013B13F0070408BF10F8014B06
:100180001D1108BF10F8015B641E05D010F8016B4B
:10019000641E01F8016BF9D113F0080F1EBF10F8AF
:1001A000014BAD1C0C1B09D16D1E58BF01F801CBD2
:1001B000FAD505E014F8016B01F8016B6D1EF9D555
:1001C0009142D6D37047000000230024002500266A
:1001D000103A28BF78C1FBD8520728BF30C148BFAA
:1001E0000B607047642900F09F80752900F09C80A7
:1001F000782900F0D580632900F02982732900F066
:100200002E82002070471FB51FBD10B510BD00F035
:1002100059FA1146FFF7F7FF01F0A2FD00F077FA57
:1002200003B4FFF7F2FF03BC01F01AFD0948804751
:1002300009480047FEE7FEE7FEE7FEE7FEE7FEE7C8
:10024000FEE7FEE7FEE7FEE704480549054A064BE0
:10025000704700001D18000831010008F008002058
:10026000F00E0020F00A0020F00A00207047000085
:100270000FB4044910B503AA029800F0F5F910BCB8
:100280005DF814FB1800002070B50446856900680D
:10029000C10601D5302600E02026C00707D070BD7A
:1002A000D4E9012130469047206A401C20626D1E2F
:1002B000F6D570BD70B5044685690078C00707D1D2
:1002C00070BDD4E9012120209047206A401C2062A3
:1002D0006D1EF6D570BD70B50C460546012A05D0D9
:1002E0002878800600D5EA69002302E0012305E0B2
:1002F0005B1C934202D2E05C0028F9D1A869E618A1
:10030000C01AA861286A184428622846FFF7BCFF73
:1003100004E0D5E9012114F8010B9047B442F8D369
:100320002846FFF7C7FF70BD2DE9F04106460024BF
:1003300010687529314616A510D0AFF3008000284B
:1003400002DA404213A507E031688A0701D512A5F9
:1003500002E0490704D511A5012401E0AFF30080B4
:1003600000210A2206F1240709E0B0FBF2FCB0FBF1
:10037000F2F302FB1C00303078541846491C002868
:10038000F3D123462A463046BDE8F04100F0FCB8E0
:10039000000000002D0000002B00000020000000E5
:1003A00070B504460D4621461068AFF300802188E1
:1003B000090502D50F4A7A4402E00E4A7A440E3209
:1003C000002104F1240305E000F00F060009965D0A
:1003D0005E54491C0028F7D120780023000704D57B
:1003E000702D02D009B1022311322046BDE87040C1
:1003F00000F0CAB8624900002DE9F05F8946044662
:100400004FF0000ADFF874B1FB44C0F820A020468A
:10041000E1688847002874D0252806D0D4E9012156
:100420009047206A401C2062F1E700265F46204684
:10043000E16888472028054607DB312D05D2781969
:1004400010F8200C08B10643F1E7B00701D526F0FB
:100450000406C4F81CA00027C4F818A02A2D09D04F
:10046000284601F0F6FB38B304EB8708303DC8F8A6
:10047000185019E059F8041B204604EB87029161DB
:10048000E1688847012F054618D1E069002820DA85
:1004900026F020061DE0D8F8180000EB800005EBE0
:1004A00040003038C8F818002046E1688847054603
:1004B00001F0CFFB0028EED1012F0AD02E2D08D15C
:1004C0002046E16888477F1C0546022F46F020063B
:1004D000C4DBA069002803DA404246F00106A061AF
:1004E000F00701D026F010066C2D0BD0682D09D036
:1004F0004C2D39D06A2D35D0742D35D07A2D33D08E
:1005000016E038E0E1682F4620468847B8420546A5
:1005100009D16C2F26D04FF48060E1680643204655
:100520008847054604E06C2F1AD04FF480700643CC
:100530000DB3A5F14100192802D8203546F4006614
:100540004A462946204626604E46FFF74BFE80B1BC
:1005500001280BD0F61D26F0070000F1080956E728
:100560004020E4E78020D8E70020D6E706F1040920
:100570004DE7284652E7206ABDE8F09F3849000061
:1005800070477047704770472DE9F0470D46994610
:100590009246044600F124080168880604D5E06903
:1005A00021F01001216000E00120A84201DD471B7D
:1005B00000E00027A1697A1902EB0900081AA0617E
:1005C0002078C00602D42046FFF75EFE002608E031
:1005D000D4E901211AF806009047206A401C761CD5
:1005E00020624E45F4DB2078C0060AD52046FFF78E
:1005F0004BFE06E0D4E9012130209047206A401CE0
:100600002062381EA7F10107F4DC07E0D4E90121DC
:1006100018F805009047206A401C2062281EA5F1AA
:100620000105F3DC2046FFF745FE2078000602D5E1
:100630000220BDE8F0870120FBE710B5436913B144
:10064000AFF3008001E0FFF746FE012010BD1278F5
:1006500000F124010A7000224A700122EDE71168BE
:100660004FF0FF32E9E70000074B70B50D467B44C1
:1006700000F011F80446284600F020F810B14FF0C1
:10068000FF3070BD204670BDD316000001694A1CC2
:1006900002610878704700B58FB0CDE901310021C3
:1006A000059105497944CDE9031011466846FFF7E5
:1006B000A3FE0FB000BD0000E5FFFFFF007B00F0D0
:1006C00080007047754600F029F8AE46050069467F
:1006D000534620F00700854618B020B5FFF7B4FD5B
:1006E000BDE820404FF000064FF000074FF0000833
:1006F0004FF0000B21F00701AC46ACE8C009ACE8B4
:10070000C009ACE8C009ACE8C0098D467047044692
:10071000AFF300802046FFF783FD000000487047DC
:100720008C08002021B1826842F00102826003E05F
:10073000826822F0010282607047000010B5044612
:100740001248844208D10121401500F0B9FD002172
:10075000601500F0B5FD17E00D48844208D1012175
:10076000001500F0ADFD0021201500F0A9FD0BE003
:100770000848844208D10121C80300F0A1FD0021EE
:100780004FF4004000F09CFD10BD0000002401402B
:1007900000280140003C0140014600208A6802F028
:1007A00004020AB1012000E0002070470146002049
:1007B0008A6802F008020AB1012000E000207047B8
:1007C00030B502460020002350680F4C20400D79C0
:1007D0000C6844EA05242043506090680B4C20408C
:1007E000D1E902542C434D7944EA450420439060FA
:1007F000D06A20F470000C7C641EE4B2234340EA0B
:100800000350D06230BD0000FFFEF0FFFDF7F1FFA6
:10081000816841F0080181607047816841F00401FE
:100820008160704700B58BB00120039000200290DA
:100830000A900C4801904FF48060079000200590CA
:100840002020089008480090801506900020049011
:100850004FF4005009906946044800F06FF80BB05F
:1008600000BD0000660200204C2401400800024048
:1008700000B587B001214FF4017000F011FD4FF475
:10088000004000F0F1FC00208DF807000220ADF8D8
:10089000040001A9184800F070F81848FFF74EFF4F
:1008A00000208DF80D0005904FF46020049000208A
:1008B000029001208DF8180000208DF80C0002A98C
:1008C0000E48FFF77DFF01210C48FFF72BFF0B4877
:1008D000FFF79EFF00BF0948FFF768FF0028FAD125
:1008E0000648FFF79AFF00BF0448FFF755FF0028AE
:1008F000FAD107B000BD000000080140002401400B
:100900000146C21700EB5272D210C2F10702094B26
:100910001A70C21700EB5272D210A0EBC202C2F1E1
:1009200007025A7019464A78012191401A4691707F
:10093000704700005E02002000BFFEE710B50022F5
:10094000026847F6F0739A430C6A8B6823430C697C
:1009500023434C6923438C692343CC6923434C6A6A
:1009600023438C6A23431A430260CB6843600B68BD
:1009700083604B68C36010BD70472DE9F0410246AB
:1009800000250026002000230024002791F803C042
:100990000CF00F0591F803C00CF0100CBCF1000F27
:1009A00003D091F802C04CEA050591F800C0BCF1F3
:1009B000000F31D0146800202BE04FF0010C0CFA2E
:1009C00000F3B1F800C00CEA03069E4220D1830078
:1009D0004FF00F0C0CFA03F7BC4305FA03FC4CEA8A
:1009E000040491F803C0BCF1280F06D14FF0010CAC
:1009F0000CFA00FCC2F814C00AE091F803C0BCF184
:100A0000480F05D14FF0010C0CFA00FCC2F810C0E1
:100A1000401C0828D1D31460B1F800C0BCF1FF0F0E
:100A200034DD546800202EE000F1080C4FF001087E
:100A300008FA0CF3B1F800C00CEA03069E4221D17B
:100A400083004FF00F0C0CFA03F7BC4305FA03FCCC
:100A50004CEA040491F803C0BCF1280F05D100F161
:100A6000080C08FA0CF8C2F8148091F803C0BCF125
:100A7000480F07D100F1080C4FF0010808FA0CF8F4
:100A8000C2F81080401C0828CED35460BDE8F08125
:100A90000161704700BFFEE770B504461848006862
:100AA00020F07040164908600846006840F0405049
:100AB000086000201349086000251EE0E00920B10D
:100AC00001201049091D086003E000200D49091D9F
:100AD00008606006040E022001F00EF901200949A9
:100AE0000860022001F008F900200749C1F89801C8
:100AF000022001F001F9681CC5B2082DDEDB70BDD3
:100B0000000C0140988121420080214210B510481C
:100B1000006820F070400E4908600846006840F008
:100B20004050086001200B4908600B49C1F89C0146
:100B3000042001F0E1F800200649091D08600420A6
:100B400001F0DAF800200449C1F8980110BD000056
:100B5000000C0140988121420080214210B50F48CD
:100B6000006820F070400D4908600846006840F0B9
:100B70004050086000200A4908600A49C1F89C01F9
:100B8000042001F0B9F80120054908600549C1F8C1
:100B90009C01042001F0B0F810BD0000000C0140E1
:100BA000988121420080214210B50024134800683A
:100BB00020F07040114908600846006840F000408D
:100BC000086001200E49086001F096F801200D49E7
:100BD000C1F8980101F090F806E0601CC4B21CB1A5
:100BE000FFF7BCFF012010BD0548803800680028D1
:100BF000F3D10349091F086000BFF4E7000C01406E
:100C00009C8121420080214210B50446FFF77EFFFF
:100C10007820FFF741FFFFF7C7FF0020FFF73CFFF9
:100C2000FFF7C2FF2046FFF737FFFFF7BDFFFFF7D3
:100C300095FF10BD10B50446FFF768FF7820FFF759
:100C40002BFFFFF7B1FF4020FFF726FFFFF7ACFFB8
:100C50002046FFF721FFFFF7A7FFFFF77FFF10BD3B
:100C60000146CA1701EB92729210A1EB820292B96F
:100C7000642091FBF0F200FB121050B94FF4C870E1
:100C800091FBF0F200FB121008B901207047002020
:100C9000FCE70120FAE70020F8E7000008B5012191
:100CA000482000F0FDFA2020ADF8000010208DF85B
:100CB000030003208DF8020069460948FFF75DFE36
:100CC00020210748FFF7E4FE2020ADF80000694628
:100CD0000448FFF752FE20210248FFF7D9FE08BD65
:100CE000000C01400018014000BFFEE77047000003
:100CF00070B5002100230F22C47804B3154C24687A
:100D000004F4E064C4F5E064210AC1F10403CA40BC
:100D1000447804FA03F184781440214309010E4C0D
:100D20000678A155047804F01F050124AC4005782D
:100D30006D11AD0005F1E025C5F8004109E004782A
:100D400004F01F050124AC40044D0678761145F8E7
:100D5000264070BD0CED00E000E400E080E100E022
:100D600002490143024A1160704700000000FA0581
:100D70000CED00E070B500240CE0002506E000203A
:100D8000074901EBC5010855681CC5B2802DF6DB8B
:100D9000601CC4B2082CF0DB00F0BAF870BD000093
:100DA00080040020F0B5144600267F2801DC3F298E
:100DB00000DDF0BD0B46CF1701EB5777FF10C7F1F1
:100DC0000707FAB2CF1701EB5777FF10A1EBC70760
:100DD000FDB2C5F107070123BB40DEB24CB10A4B9F
:100DE00003EBC0039B5C3343074F07EBC007BB54C7
:100DF00008E0054B03EBC0039B5CB343024F07EBDA
:100E0000C007BB5400BFD4E78004002008B501210F
:100E1000082000F045FAC020ADF8000010208DF841
:100E2000030003208DF8020069463848FFF7A5FD4E
:100E3000C0213648FFF72CFEC82000F037FF002104
:100E4000AE2000F0FCF90021D52000F0F8F90021D7
:100E5000502000F0F4F90021A82000F0F0F9002162
:100E60003F2000F0ECF90021D32000F0E8F9002148
:100E7000084600F0E4F90021402000F0E0F90021EC
:100E80008D2000F0DCF90021142000F0D8F90021B9
:100E9000202000F0D4F90021022000F0D0F9002138
:100EA000A12000F0CCF90021C02000F0C8F90021F9
:100EB000DA2000F0C4F90021122000F0C0F900216E
:100EC000812000F0BCF90021EF2000F0B8F90021EA
:100ED000D92000F0B4F90021F12000F0B0F9002190
:100EE000DB2000F0ACF90021302000F0A8F900214F
:100EF000A42000F0A4F90021A62000F0A0F9002110
:100F0000AF2000F09CF9FFF735FF08BD000C014051
:100F100070B500241BE004F1B000002100F08FF94F
:100F20000021084600F08BF90021102000F087F91D
:100F3000002508E0074901EBC501085D012100F02B
:100F40007EF9681CC5B2802DF4DB601CC4B2082C8D
:100F5000E1DB70BD800400202DE9F84F80460F468C
:100F600016461C46BA462046E31704EB5373DB10C3
:100F700021464FEAE47C04EB5C7C4FEAEC0CA4EBEA
:100F8000CC0CBCF1000F02D04FF0010C01E04FF08F
:100F9000000C6344224604EBD27C4FEA6C0C03FB4A
:100FA0000CF303F0FF0BA6F12000C6B2002556E0BB
:100FB0000C2C07D106EB46002B4901EB8000405D6D
:100FC00000901BE0102C05D1284800EB0610405D76
:100FD000009013E0182C07D106EBC600244901EB62
:100FE0008000405D009009E0082C05D1214800EB0D
:100FF0008600405D009001E0BDE8F88F4FF00009E9
:1010000027E0009800F0800028B1394640460A9A4F
:10101000FFF7C8FE09E00A9808B9012000E00020A7
:10102000024639464046FFF7BDFE00984006000ED6
:101030000090781CC7B2A7EB0A00A04205D1574622
:1010400008F1010000F0FF0806E009F1010000F0DE
:10105000FF09B9F1080FD4DB00BF681CC5B25D45BC
:10106000A6DB00BFC8E7000044350008B839000817
:10107000A83F0008C83300082DE9FC4F06460D467E
:1010800017461C4600952046E21704EB5272D21018
:101090002146E31704EB5373DB10A4EBC3030BB13E
:1010A000012300E000231A44624302F0FF0B0C2CE2
:1010B00005D107EB4700224901EBC0090CE0102CD9
:1010C00003D1204800EB471906E0182C04D107EBA8
:1010D000C7001D4901EBC0094FF000082CE019F8CA
:1010E00008A0002001901FE00AF0800028B1E9B2BA
:1010F000F0B20122FFF756FE04E0E9B2F0B200229E
:10110000FFF750FE4FEA4A604FEA106A681C85B24A
:101110000098281AA04203D1009D701C86B206E0F8
:101120000198401CC0B2019001980828DCDB00BF88
:1011300008F1010000F0FF08D845D0DBBDE8FC8FC6
:10114000C8320008F8320008383300082DE9FF4F94
:1011500081B0074691461E460E9D4FF0000A0024BE
:1011600039E0301B401EC1B20A2000F095FEB9FBE9
:10117000F0F00A21B0FBF1F201FB1208BAF1000F06
:1011800016D1701EA04213DDB8F1000F0ED1012060
:10119000AB4605EBDB71491001FB04710090C8B24E
:1011A0002B4620220299FFF7D7FE12E04FF0010AEA
:1011B0000120AB4605EBDB71491001FB0471009087
:1011C000C8B208F13001CAB22B460299FFF7C4FE3B
:1011D00000BF601CC4B2B442C3DB05B0BDE8F08FF1
:1011E000F8B506460F4615461C4621E004EBD471BF
:1011F0004910C1F18001B14202DA00263819C7B2A4
:10120000C4F14000B84204DA002006460746FFF762
:10121000B1FD012000902A78234639463046FFF779
:101220009BFE204604EBD07106EB6101CEB26D1C33
:1012300028787E2802DC28782028D7DAF8BD70B517
:1012400004460D461DB1E0B2FFF7F4FC02E0E0B247
:10125000FFF7DAFC70BD000001490862704700002A
:1012600000000E427047000001460020034A50680B
:1012700020F44040084350607047000000100240D6
:1012800029B1064AD2690243044BDA6104E0034AF9
:10129000D2698243014BDA617047000000100240BE
:1012A00029B1064A92690243044B9A6104E0034A59
:1012B00092698243014B9A6170470000001002401E
:1012C00029B1064AD2680243044BDA6004E0034ABB
:1012D000D2688243014BDA60704700000010024080
:1012E00030B500210022002400232D4D6D6805F04B
:1012F0000C0121B1042905D0082923D105E0294D8D
:10130000056022E0274D05601FE0254D6D6805F45E
:101310007012234D6D6805F48034022505EB92426E
:101320001CB9214D554305600BE01D4D6D6805F45A
:1013300000351DB11C4D5543056002E0194D554364
:10134000056002E0174D056000BF00BF144D6D68D9
:1013500005F0F0010909154D6B5C0568DD4045603D
:101360000F4D6D6805F4E061090A104D6B5C45682E
:10137000DD4085600A4D6D6805F46051C90A0B4D6A
:101380006B5C4568DD40C560054D6D6805F4404106
:10139000890B074D6B5CC568B5FBF3F5056130BD86
:1013A0000010024000127A0000093D00A403002052
:1013B000B4030020024909888143014A1180704723
:1013C000042800400348008840F0100001490880CC
:1013D0007047000004280040034800884FF6EF7172
:1013E00008400149088070470428004070B5002675
:1013F0000024002500F07AF806463848B6FBF0F4E1
:1014000037480088A0423CD035490C8040F2B27584
:1014100010E02846FFF724FC40B1B4F5B77F02D3B3
:10142000A4F5B77404E0681C85B206E0A4F26D145C
:10143000681C85B2B4F5B67FEBD800BF294885801B
:10144000002516E027498888FFF70AFC30B1012DF6
:1014500004D11D2C01D31D3C09E00CE02248405D65
:10146000A04203D82048405D241A00E003E0681C35
:1014700085B21C2CE6D200BF681C1A498871601C1A
:10148000C8711648B6FBF0F100FB11644FF46160BF
:10149000B4FBF0F0134908704FF46160B4FBF0F155
:1014A00000FB11403C21B0FBF1F00E4948704FF4B5
:1014B0006160B4FBF0F100FB11403C21B0FBF1F2A4
:1014C00001FB1200074988700B46DA7999799888F0
:1014D00000F028F803490872002070BD8051010017
:1014E0006402002080080020104D000800210348FD
:1014F0000188001F008841EA004070471C28004016
:1015000001460020064A12880A40D0B2044A121F3F
:1015100012880A4012B108B1012000E00020704793
:1015200004280040F0B503460C461546642093FBA2
:10153000F0F0C6B2642093FBF0F700FB1730C1B2A5
:10154000132E02DD01F16400C1B20846CF1701EB92
:10155000977701EBA707BAB2072092FBF0F700FBE1
:10156000172082B25719601EDFF82CC01CF800004B
:10157000384482B2CF1701EB9777BF10A1EB8707F2
:101580001FB9032C01DA501E82B2072092FBF0F73C
:1015900000FB1720C0B2F0BD044D00080EB50120BD
:1015A000FFF7AEFF08B1FFF721FF0220FFF7A8FF0A
:1015B000A0B10220FFF7FEFEFFF718FF0A4880786F
:1015C00009494978084A1278CDE900210290064875
:1015D000C3798279818805A0FEF74AFE0520FFF7CE
:1015E000E9FE00F085F80EBD80080020416C6172B4
:1015F0006D2054696D653A25642D25642D25642080
:1016000025643A25643A25640A0000002DE9F05F5C
:1016100006460F4690469946DDE90AAB002440F2A3
:10162000B270864203DB40F63300864202DD0120C1
:10163000BDE8F09F40F2B2750AE02846FFF710FBC4
:1016400010B12048044401E01F480444681C85B2DE
:10165000B542F2DB781EC7B2002510E01B48405DA2
:1016600040F2A321484304EBC0143046FFF7F8FAD8
:1016700018B1012D01D116480444681C85B2BD4241
:10168000ECDBA8F1010040F2A321484304EBC014B5
:10169000C9EB4910C0EB092004EB0014CAEB0A1097
:1016A00004EB80045C4401214FF0C050FFF7E8FDDB
:1016B0000120FFF7D1FD204600F00CF800F018F8EB
:1016C0000020B5E70085E2018033E101104D0008FC
:1016D0008051010000B50246FFF774FE100C03496B
:1016E0000880091D0A80FFF777FE00BD182800401A
:1016F00000BF0348008800F020000028F9D07047A0
:1017000004280040704710B500F002F810BD00003A
:101710000CB50020019000903348006840F4803000
:101720003149086000BF3048006800F40030009084
:101730000198401C0190009818B90198B0F5A06F6D
:10174000F1D12948006800F4003010B10120009068
:1017500001E0002000900098012843D12348006850
:1017600040F01000214908600846006820F003009E
:1017700008600846006840F0020008601A484068A7
:10178000194948600846406848600846406840F487
:10179000806048600846406820F47C104860084635
:1017A000406840F4E81048600846006840F08070E7
:1017B000086000BF0C48006800F000700028F9D0F5
:1017C0000948406820F0030007494860084640681F
:1017D00040F00200486000BF0348406800F00C0081
:1017E0000828F9D10CBD0000001002400020024082
:1017F000042808D14FF0E021096941F004014FF0BD
:10180000E022116107E04FF0E021096921F00401B5
:101810004FF0E022116170477047000010B5134887
:10182000006840F00100114908600846406810490E
:1018300008400E494860084600680E4908400B49B8
:1018400008600846006820F4802008600846406868
:1018500020F4FE0048604FF41F008860FFF753FF3C
:101860004FF000600449086010BD00000010024005
:101870000000FFF8FFFFF6FE08ED00E010B50121C3
:101880000A4800F035F801280AD10949086980475B
:101890000021064800F048F86421044800F042F8AE
:1018A0000121024800F009F810BD000000080040C6
:1018B000B0020020CA4302827047CA4302827047C6
:1018C00021B1028842F00102028004E002884FF652
:1018D000FE731A40028070470146888C70470246AA
:1018E0000020138A0B400BB1012000E0002070475C
:1018F00030B50246002000230024158A05EA0103C2
:10190000958905EA010413B10CB1012000E0002023
:1019100030BD1AB183890B43838102E083898B43F5
:1019200083817047818570478184704700220288D7
:101930001D4B98420ED01D4B98420BD0B0F1804FFA
:1019400008D01B4B984205D01A4B984202D01A4B34
:10195000984204D14FF68F731A404B881A43174BA5
:10196000984207D0164B984204D04FF6FF431A40D6
:10197000CB881A4302808B8883850B8803850A4BAA
:1019800098420BD0094B984208D00E4B984205D094
:101990000D4B984202D00D4B984201D10B7A038631
:1019A0000123838270470000002C01400034014075
:1019B0000004004000080040000C004000100040FF
:1019C0000014004000400140004401400048014034
:1019D0007FB505460C4601210420FFF751FCADF808
:1019E0000850ADF804400020ADF80A00ADF806003C
:1019F00001A90D48FFF79AFF012241210A48FFF78C
:101A000088FF1E208DF8000003208DF801008DF85E
:101A1000020001208DF803006846FFF769F90121F3
:101A20000148FFF74DFF7FBD0008004010B540F2B0
:101A300025511D4800F04AF810B31B4800F002F988
:101A4000C4B21A48008800F40040C8B9174800889A
:101A500000F4804060B10A2C03D0002013490880B4
:101A600020E01248008840F400401049088019E046
:101A70000D2C06D10D48008840F480400B490880A9
:101A800010E00A480088C0F30D0009490C540748CB
:101A90000088401C0549088008460088C72801DDE9
:101AA0000020088010BD0000003801401C0000200C
:101AB000B803002021B1828942F40052828104E0FF
:101AC00082894DF6FF731A408281704770B50246D5
:101AD000002400230025002040F66A16B14200D100
:101AE00000BFC1F3421501F01F03012606FA03F3FC
:101AF000012D02D19689334006E0022D02D1168ACB
:101B0000334001E0968A33400C12012606FA04F4B1
:101B10001688344013B10CB1012000E0002070BDE4
:101B2000F0B50346002400260025002040F66A1781
:101B3000B94200D100BF1846C1F3421401F01F069C
:101B4000012707FA06F5012C01D10C3004E0022C24
:101B500001D1103000E014301AB107682F4307603C
:101B600002E00768AF430760F0BD00002DE9F047D1
:101B700086B005460E460024A24600BFA1460027B7
:101B8000B08900B100BF2F462C8A4CF6FF7004408C
:101B9000F08804432C82AC894EF6F3100440B088E0
:101BA00031890843718908430443AC81AC8A4FF6FC
:101BB000FF400440B0890443AC8201A8FFF790FBCA
:101BC0001F48874202D1DDF810A001E0DDF80CA02B
:101BD000A88900F4004040B10AEBCA0000EB0A10EB
:101BE00031684900B0FBF1F807E00AEBCA0000EBEE
:101BF0000A1031688900B0FBF1F86420B8FBF0F0FE
:101C000004012009642101FB1089A88900F4004027
:101C100040B1322000EBC900B0FBF1F000F007004A
:101C2000044308E0322000EB09106421B0FBF1F01E
:101C300000F00F0004432C8106B0BDE8F0870000DF
:101C40000038014001468888C0F30800704700BF93
:101C5000FEE730380A2801D2012070470020704783
:101C6000014600BF7047000010B56FF00400FFF799
:101C7000BFFD0A4800680A49B0FBF1F00949087045
:101C80000846007800EB4001C1EBC0104FF6FF7131
:101C900001EAC0000449088010BD000000000020D7
:101CA00000127A0014000020160000200146114A9C
:101CB00012884A434FF0E0235A6100229A611A4683
:101CC000126942F001021A6100BF4FF0E022106970
:101CD00000F001021AB100F48032002AF5D04FF072
:101CE000E022126922F001024FF0E0231A61002283
:101CF0009A617047160000200146114A12784A4343
:101D00004FF0E0235A6100229A611A46126942F0AC
:101D100001021A6100BF4FF0E022106900F00102D9
:101D20001AB100F48032002AF5D04FF0E022126997
:101D300022F001024FF0E0231A6100229A617047FD
:101D40001400002000BF054A128802F04002002A59
:101D5000F9D0C2B2014B1B1D1A80704700380140F8
:101D600008B5FFF781FF4FF4A060FEF7F9FFFEF71B
:101D700095FFFFF74BF8FEF77BFDFEF753FD4FF4A1
:101D8000E13000F097F83448008801F08CF90746FC
:101D9000324A334B01F09AF9054601F057F900F049
:101DA000FF094846FEF7ACFDFEF7E4FF0C230122D5
:101DB00010210020FFF760F9102301221946184670
:101DC000FFF75AF9102327A219462020FFF708FA37
:101DD0000C2326A222210020FFF702FA0C2326A2C0
:101DE00030210020FFF7FCF90C2326A20021084631
:101DF000FFF7F6F90C2325A200214020FFF7F0F9A8
:101E0000FFF786F8202426E0012010232246002137
:101E100000903020FFF7A0F8FFF77AF8601CC4B2FA
:101E20007E2C00DD20240C2003232246002100907C
:101E30006720FFF78BF94FF4FA70FFF737FF4FF485
:101E40007A70FFF733FF1348006808B9012000E0FB
:101E5000002010490860D7E766020020DEAB562656
:101E6000FC528F3F48655765690000004F4C454460
:101E70002054455354000000323032302F30322F7E
:101E80003237000041534349493A0000434F44452B
:101E90003A0000009481214210B50246012000E082
:101EA00050430B00A1F10104E1B2F9D110BD01468C
:101EB0000868704710B586B00446012144F204005A
:101EC000FFF7EEF94FF40070ADF8140003208DF821
:101ED000160018208DF8170005A91C48FEF74DFDC7
:101EE0004FF48060ADF8140004208DF8170005A9A8
:101EF0001648FEF742FD25208DF8000003208DF8DE
:101F000001008DF8020001208DF803006846FEF7FD
:101F1000EFFE01940020ADF80800ADF80A00ADF81E
:101F20000C00ADF810000C20ADF80E0001A9084817
:101F3000FFF71CFE012240F225510548FFF7F0FD96
:101F400001210348FFF7B6FD06B010BD00080140AF
:101F50000038014030B595B0054613AB12AA09A967
:101F6000284600F039FA044614B1204615B030BDB9
:101F70000020149026E0224909689DF8502001EBCA
:101F8000C20113AB11AA486801A900F025FA044662
:101F90000CB12046EAE709A901A800F0BBFC60B932
:101FA0009DF844009DF84810884201DD0220DDE7DD
:101FB0009DF85000124988750AE09DF85000401CB9
:101FC000C0B214900E48007D9DF850108842D2DCBB
:101FD00000BF0B48007D9DF85010884201D10420BD
:101FE000C4E714A9284600F0D7FA04460CB12046ED
:101FF000BCE79DF85000024948750020B6E7000094
:10200000B00200202DE9F0419AB09C48847D007D0B
:10201000A04202DC1AB0BDE8F0819849096801EBE2
:10202000C40106AB07AA486808A900F0D5F908A9B9
:1020300093A0FEF71DF9002644E09048008B012193
:10204000B1400840D8B122218FA0FEF711F93046E7
:1020500000F028FB89492431471839468BA0FEF748
:1020600007F9222188A0FEF703F9304600F01AFB99
:1020700082492431084410A941F8260018E030466E
:1020800000F010FB7D492431085810A941F82600C2
:102090007A48C07D30B910A850F826107CA0FEF711
:1020A000E7F805E010A850F826107AA0FEF7E0F84F
:1020B0009DF81C00401EB04202D078A0FEF7D8F870
:1020C000701CC6B29DF81C008642B6DB74A0FEF7F9
:1020D000CFF800F039FB6948407D0B280DD2DFE8CE
:1020E00000F0060D151E27323F4E5F7287006349D0
:1020F000096851F834008047054690E05F4A12684D
:1021000052F8341010988847054688E05B4B1B68EE
:1021100053F83420DDE91001904705467FE0574F22
:102120003F6857F8343010A807C89847054676E04E
:10213000DFF848C1DCF800C05CF8347010A80FC8A4
:10214000B84705466BE01498DFF830C10090DCF822
:1021500000C05CF8347010A80FC8B84705465EE0B0
:10216000DDE91401DFF814C1CDE90001DCF800C09D
:102170005CF8347010A80FC8B84705464FE0DDE999
:1021800014121698DFF8F4C0CDE900120290DCF8C2
:1021900000C05CF8347010A80FC8B84705463EE090
:1021A000DDE91423DDE91610DFF8D0C0CDE9002306
:1021B000CDE90210DCF800C05CF8347010A80FC83C
:1021C000B84705462BE0DDE91523DDE91710CDE919
:1021D0000123CDE903101498DFF8A0C00090DCF8CB
:1021E00000C05CF8347010A80FC8B847054616E068
:1021F000DDE91623DDE91810CDE90223CDE904104D
:10220000DDE91401DFF874C0CDE90001DCF800C09D
:102210005CF8347010A80FC8B847054600BF00BF6F
:1022200000F050FA9DF8180001280CD11348C07D29
:1022300020B929461BA0FEF71BF807E029461BA082
:10224000FEF716F802E018A0FEF712F80B4890F817
:10225000EC0088B10948D0F8F0000A21B0FBF1F297
:1022600001FB12070548D0F8F000B0FBF1F83A4640
:10227000414611A0FDF7FCFF00BFCBE6B0020020F5
:102280000D0A257328000000256300002573000057
:10229000256C750030582558000000002C00000007
:1022A000290000003D256C753B0D0A003D30582586
:1022B000583B0D0A0000000046756E6374696F6E2E
:1022C0002052756E2054696D653A25642E2531645F
:1022D0006D730D0A00000000F0B50346154600209E
:1022E00000220026002455E01F782C2F01D104B9CC
:1022F00001221F78292F01D01F780FB904B94AE0B5
:10230000002E34D11F78302F02DB1F78392F11DDDA
:102310001F78612F02DB1F78662F0BDD1F78412F9E
:1023200002DB1F78462F05DD1F78582F02D01F785B
:10233000782F0CD102B12EE01F78612F03DB1F78BC
:10234000203F0F7001E01F780F70491C1FE01F78BD
:10235000222F04D102B11EE00126012417E01F78CC
:10236000202F14D01F782C2F11D0FF2613E01F78B8
:10237000222F00D1002402B10DE044B11F785C2F60
:1023800002D15B1C471CF8B21F780F70491C471C18
:10239000F8B25B1CA8E700BF00270F702E70F0BDDD
:1023A00010B50446002010700BE020780870641C03
:1023B000491C1078401C10701078984201DB0120F5
:1023C00010BD2078202802D020780028EDD10020F0
:1023D000087000BFF4E700002DE9FF4F85B080468C
:1023E00089460027002004900390012002904FF0BE
:1023F000000B002544461DE02078202816D005F06B
:102400007F00052812DA0DB945F0800505F07F0040
:10241000042803D120782A2800D00EE0207805F087
:102420007F010DF80100681CC5B202E0852D00D1C6
:1024300003E0641C20780028DED100BF8DB10020AD
:1024400005F07F010DF8010051A1684600F062FA25
:1024500018B900210898017002E001210898017064
:1024600000254FF0000A444614E0641C0AF1010004
:1024700000F0FF0A2078202802D020782A2809D1ED
:10248000204600F0D7F90646282E03D02A2E01D088
:10249000CDF810A02078282802D020780028E4D198
:1024A0004446049810B10498401C04444FF0000ABC
:1024B000002654E0207810B94FF0010A50E020784F
:1024C000282803D116B9781CC7B213E02078292830
:1024D00008D13EB917B1781EC7B201E04FF0010A2A
:1024E00047B93DE02078222804D10EB9012000E050
:1024F0000020064647B9207820282FD0207889F878
:10250000000009F1010929E020782C2804D10120DC
:102510000290681CC5B214E02078202811D02078E1
:1025200028280ED04DB9BBF1050F06DA20780DF83A
:102530000B000BF1010000F0FF0B0298401CC0B231
:102540000290012F0AD10298022807D10298401C5C
:10255000C0B202900398401CC0B20390641CA9E76B
:1025600000BF0398012809D100200DF80B0008A135
:10257000684600F0CFF908B9002003900799039846
:102580000870002089F80000504609B0BDE8F08FBF
:10259000766F6964000000002DE9F043B5B0054690
:1025A0000F460024002604E000213D488155701CA0
:1025B000C6B20A2EF8DB06E06D1C287818B9012097
:1025C00035B0BDE8F08328782828F5D16D1C61E08E
:1025D00034AA69462846FFF77FFE064635449DF833
:1025E000D00020B1012827D0FF284CD149E09DF828
:1025F000000000B333A9684600F027F906460EB183
:102600000220DDE7204600F04DF825490A31339AD3
:102610000A50A1F12400008B0121A14088432049E8
:102620001A39088304211E480155601CC4B20A2CC3
:1026300001DD0320C4E726E0684600F087F9401C6E
:1026400000F0FF08204600F02DF815490A3100EB94
:1026500001094946684600F06EF911481A38018BA5
:102660000120A040014388B20D491A3908830C4863
:1026700000F80480601CC4B20A2C01DD03209FE72F
:1026800001E002209CE700BF2878292801D02878A3
:1026900000B900E09CE700BF3C70002090E700001C
:1026A000CA02002002460020002105E0044B5B5CCA
:1026B0000344D8B24B1CD9B29142F7DB70470000FB
:1026C000CA02002010B501210D48FFF708F90128C2
:1026D00008D10C48D0F8F0004FF6FF7108440949C2
:1026E000C1F8F0000648FFF7F7F80649D1F8F010F6
:1026F00008440449C1F8F0000846D0F8F00010BDC5
:1027000000080040B002002010B5044604EBC400ED
:1027100000EB04100122C2EB800081B24FF47A700A
:10272000FFF756F901200149C87510BDB00200201D
:1027300010B50246012000E050430B00A1F1010456
:10274000E1B2F9D110BD000010B501210848FFF732
:10275000B1F84FF6FF710648FFF7E4F8002104488E
:10276000FFF7E2F800200349C1F8F00010BD0000B7
:1027700000080040B002002070B51D48008800F439
:102780000040002833D01A480578002019494855E0
:10279000194881681748884704461CB91649C86813
:1027A000804721E0134800F0DDF80546012D00D0F8
:1027B0002C46CCB1012C06D0022C08D0032C0AD018
:1027C000042C10D10BE00DA0FDF752FD0BE00EA084
:1027D000FDF74EFD07E00FA0FDF74AFD03E010A056
:1027E000FDF746FD00BF00BF00200149088070BD15
:1027F0001C000020B8030020B0020020BAAFCAFDC0
:10280000B4EDCEF3210D0A00B2CECAFDB4EDCEF385
:10281000210D0A00B2CECAFDCCABB6E0210D0A00F4
:10282000CEB4D5D2B5BDC6A5C5E4B5C4BAAFCAFD50
:10283000210D0A000146491C00E0491C08782028A7
:1028400001D10029F9D1087870472DE9F0430746F6
:102850000E4600254FF00A083C46002030601FE07D
:102860002078392802DC207830280ADA20784628B7
:1028700002DC2078412804DA2078582809D1012D7B
:1028800007D12078412801DB4FF01008681CC5B241
:1028900005E0207800B904E00120BDE8F083641C65
:1028A000DEE700BF3C46B8F1100F0FD1032D01DA6F
:1028B0000220F2E72078302806D16078582803D12A
:1028C000A41CA81EC5B204E00320E6E70DB904204D
:1028D000E3E71BE00DB1681EC5B22078392806DC9D
:1028E0002078302803DB2078A0F1300902E020783E
:1028F000A0F1370929464046FFF71AFF316809FB66
:1029000000103060641C207800B900E0E2E700BFEE
:102910000020C2E702460AE010780B78984201D006
:1029200001207047107800B902E0521C491CF3E7FF
:1029300000BF0020F5E706E002780A70027802B9CD
:1029400002E0401C491CF7E700BF70470146002029
:1029500005E00A7802B903E0421CD0B2491CF8E74E
:1029600000BF704710B58CB004461E230BAA03A904
:102970002046FFF715FD0090009810B101200CB023
:1029800010BD9DF82C00044400200B900EE0404840
:102990009DF82C2050F8221003A8FFF7BBFF00B9C8
:1029A00008E09DF82C00401CC0B20B909DF82C0054
:1029B0000728ECD300BF9DF82C00072863D2DFE87E
:1029C00000F004053C5E6564630000BF31A0FDF7C4
:1029D0004FFC31A0FDF74CFC3FA0FDF749FC4EA099
:1029E000FDF746FC5CA0FDF743FC6BA0FDF740FC47
:1029F00079A0FDF73DFC86A0FDF73AFC8BA0FDF722
:102A000037FC90A0FDF734FC94A0FDF731FC99A0B1
:102A1000FDF72EFC9EA0FDF72BFCA4A0FDF728FCE3
:102A2000B0A0FDF725FCBDA0FDF722FCC8A0FDF776
:102A30001FFCD4A0FDF71CFC9AE216A0FDF718FCC1
:102A4000E0A0FDF715FC00200B900EE0ED480068BB
:102A50009DF82C2000EBC2004168EBA0FDF708FCBC
:102A60009DF82C00401CC0B20B90E648007D9DF8FC
:102A70002C108842EADC07A0FDF7FAFB78E205A0FB
:102A8000FDF7F6FBC4E171E245E219E2ECE100007A
:102A90006C0200200D0A00002D2D2D2D2D2D2D2D29
:102AA0002D2D2D2D2D2D2D2D2D2D2D2D2D2D2D2D56
:102AB00055534D4152542056332E312D2D2D2D2D51
:102AC0002D2D2D2D2D2D2D2D2D2D2D2D2D2D2D2D36
:102AD0002D2D2D200D0A00002020202055534D4182
:102AE0005254CAC7D3C9414C49454E54454BBFAA5D
:102AF000B7A2B5C4D2BBB8F6C1E9C7C9B5C4B4AEB4
:102B0000BFDAB5F7CAD4BBA5BDBBD7E9BCFE2CCD97
:102B1000A8B9FD200D0A0000CBFC2CC4E3BFC9D22C
:102B2000D4CDA8B9FDB4AEBFDAD6FACAD6B5F7D3BC
:102B3000C3B3CCD0F2C0EFC3E6B5C4C8CEBACEBAE8
:102B4000AFCAFD2CB2A2D6B4D0D02ED2F2B4CB2CC8
:102B5000C4E3BFC90D0A0000D2D4CBE6D2E2B8FC70
:102B6000B8C4BAAFCAFDB5C4CAE4C8EBB2CECAFD98
:102B700028D6A7B3D6CAFDD7D62831302F3136BDD7
:102B8000F8D6C629A1A2D7D6B7FBB4AEA1A2BAAFD8
:102B9000CAFDC8EB0D0A0000BFDAB5D8D6B7B5C874
:102BA000D7F7CEAAB2CECAFD292CB5A5B8F6BAAFD2
:102BB000CAFDD7EEB6E0D6A7B3D63130B8F6CAE430
:102BC000C8EBB2CECAFD2CB2A2D6A7B3D6BAAFCA52
:102BD000FDB7B5200D0A0000BBD8D6B5CFD4CABE0C
:102BE0002ED0C2D4F6B2CECAFDCFD4CABEBDF8D65E
:102BF000C6C9E8D6C3B9A6C4DC2CD0C2D4F6BDF889
:102C0000D6C6D7AABBBBB9A6C4DC2E0D0A000000ED
:102C1000BCBCCAF5D6A7B3D63A7777772E6F706566
:102C20006E6564762E636F6D0D0A000055534D413D
:102C30005254D3D037B8F6CFB5CDB3C3FCC1EE3ABA
:102C40000D0A00003F3A202020202020BBF1C8A11F
:102C5000B0EFD6FAD0C5CFA20D0A000068656C703F
:102C60003A202020BBF1C8A1B0EFD6FAD0C5CFA240
:102C70000D0A00006C6973743A202020BFC9D3C3C9
:102C8000B5C4BAAFCAFDC1D0B1ED0D0A0A0000004B
:102C900069643A2020202020BFC9D3C3BAAFCAFD3F
:102CA000B5C44944C1D0B1ED0D0A0A006865783A4F
:102CB00020202020B2CECAFD3136BDF8D6C6CFD4F2
:102CC000CABE2CBAF3B8FABFD5B8F12BCAFDD7D615
:102CD000BCB4D6B4D0D0BDF8D6C6D7AABBBB0D0AFB
:102CE0000A0000006465633A20202020B2CECAFDAD
:102CF0003130BDF8D6C6CFD4CABE2CBAF3B8FABFAD
:102D0000D5B8F12BCAFDD7D6BCB4D6B4D0D0BDF857
:102D1000D6C6D7AABBBB0D0A0A00000072756E7436
:102D2000696D653A312CBFAAC6F4BAAFCAFDD4CBDF
:102D3000D0D0BCC6CAB13B302CB9D8B1D5BAAFCA15
:102D4000FDD4CBD0D0BCC6CAB13B0D0A0A000000EE
:102D5000C7EBB0B4D5D5B3CCD0F2B1E0D0B4B8F1B4
:102D6000CABDCAE4C8EBBAAFCAFDC3FBBCB0B2CEA1
:102D7000CAFDB2A2D2D4BBD8B3B5BCFCBDE1CAF87F
:102D80002E0D0A002D2D2D2D2D2D2D2D2D2D2D2DE2
:102D90002D2D2D2D2D2D2D2D2D2D2D2D2D2D414C30
:102DA00049454E54454B2D2D2D2D2D2D2D2D2D2DA1
:102DB0002D2D2D2D2D2D2D2D2D2D2D2D2D2D2D2050
:102DC0000D0A00002D2D2D2D2D2D2D2D2D2D2D2DD0
:102DD0002D2D2D2D2D2D2D2D2D2D2D2D2DBAAFCA77
:102DE000FDC7E5B5A52D2D2D2D2D2D2D2D2D2D2DF1
:102DF0002D2D2D2D2D2D2D2D2D2D2D2D2D2D2D2D03
:102E0000200D0A00B002002025730D0A000000000A
:102E100059A0FDF72DFA00200B901AE066490968C9
:102E20009DF82C2001EBC20101AB02AA486803A95E
:102E3000FFF7D2FA604800689DF82C1050F8312056
:102E400003A95EA0FDF714FA9DF82C00401CC0B247
:102E50000B905948007D9DF82C108842DEDCAFF2C3
:102E6000CC30FDF705FA83E0AFF2D830FDF700FA79
:102E70000BAA03A92046FFF72FFA9DF82C00C8B92A
:102E8000694603A8FFF7E1FC0B909DF82C0020B9E0
:102E90004FA00099FDF7ECF90EE09DF82C000428F6
:102EA00001D002206BE54DA0FDF7E2F90120424977
:102EB000C87501E0022062E547A0FDF7D9F957E0A7
:102EC00045A0FDF7D5F90BAA03A92046FFF704FAA0
:102ED0009DF82C00C8B9694603A8FFF7B6FC0B9013
:102EE0009DF82C0020B942A00099FDF7C1F90EE031
:102EF0009DF82C00042801D0022040E53FA0FDF7FA
:102F0000B7F900202C49C87501E0022037E532A04E
:102F1000FDF7AEF92CE030A0FDF7AAF90BAA03A942
:102F20002046FFF7D9F99DF82C00C8B9694603A8D7
:102F3000FFF78BFC0B909DF82C0078B91E49009888
:102F400081F8EC00084690F8EC0018B130A0FDF7CD
:102F50008FF907E035A0FDF78BF903E002200EE5BD
:102F600002200CE51CA0FDF783F901E0012006E535
:102F700000BF002003E500002D2D2D2D2D2D2D2D22
:102F80002D2D2D2D2D2D2D2D2D2D2D2D2D2D2D2D71
:102F90002DBAAFCAFD204944202D2D2D2D2D2D2DCC
:102FA0002D2D2D2D2D2D2D2D2D2D2D2D2D2D2D2D51
:102FB0002D2D2D2D200D0A00B00200202573206933
:102FC000642069733A0D0A3058253038580D0A00CC
:102FD0004845583A305825580D0A00003136BDF89A
:102FE000D6C6B2CECAFDCFD4CABE210D0A0000009B
:102FF0004445433A256C750D0A0000003130BDF898
:10300000D6C6B2CECAFDCFD4CABE210D0A0000007A
:1030100052756E2054696D652043616C63756C61F7
:1030200074696F6E204F4E0D0A00000052756E20BD
:1030300054696D652043616C63756C6174696F6E72
:10304000204F46460D0A0000016070474FEA1153B9
:10305000A3F58063D3F11E03A8BFD3F1200C08DBD6
:103060004FF0004242EAC12252EA505232FA03F0D3
:10307000704709420BD4102BC4BF0020704703F5E2
:10308000787CBCF1FF3F05D04FF0FF3070474FF028
:103090000000704770B500F0C3F800BF499224806B
:1030A00000207047F0E7B0FA80F310FA03F10AD07D
:1030B000C3F11D0303F580634FEA41504FEA035209
:1030C00002EBD12170474FF000007047DFF848C194
:1030D00070B51CEA111E1EBF1CEA13159EEA0C0FE8
:1030E00095EA0C0F00F06F8081EA030423EA4C1389
:1030F0004EEAD47E21EA4C1141F4801143F480134E
:10310000AE44A1FB024CA0FB0365AEF17F7E3619F5
:1031100055EB0C05A1FB034C4CF10003A0FB021C7A
:1031200016EB0C06654153F10003094218BF46F047
:10313000010613F4007F0BD14FEA03314FEA05304B
:10314000340341EA155140EA16506FF003020AE0D9
:103150004FEAC3214FEAC520F40241EA555140EA43
:1031600056506FF0020202EB2E4201EB025585EA47
:10317000CE710AD05FEA440C18BF24F0004450F12D
:10318000000041F1000120EAD47040F2FE7C62456B
:1031900000D270BDA84214BF4FF080444FF04044AD
:1031A000002E08BF0024BEF1806FA8BFA1F1C0416E
:1031B000BDE8704080F282804FF0000001F1C04114
:1031C00001F0004170479EEA0C0F0CEA131518BF7E
:1031D00095EA0C0F06D04FF0000081EA030E0EF0C6
:1031E000004170BD00F01CF88900013E00F007B8F6
:1031F00000F009B84FEA430C5FEA5C5C08D081EA52
:10320000030100F05BB84FEA410C5FEA5C5CF6D169
:103210004FF00000014970470000FF070000F87FF1
:103220000EF1020E2EF0030E5EF8046B364205D44A
:10323000012A43EB030515F5001F12D8012841EBC5
:10324000010C1CF5001F0CD80ED14FEAD17C15F5EE
:10325000001F0CEB4C0C0CF1020C08BF4CEBD37CA8
:1032600004E04FF0080C01E04FEAD37C0CEB4C0576
:1032700026FA05F606F00706B6F1040C06D20EEBA8
:10328000860CBDE870404CF0010C6047DFE80CF0A4
:10329000090B02024FF000414FF00000A1F50021A0
:1032A00070BD19461046012851EB010418BFD4F532
:1032B000001484BF002001F0004170BD0808A0F593
:1032C00000114FEA3101704708003FF0C0000000D4
:1032D0004FC0488048804F9040107FF04000000071
:1032E000000040205FC05520F55055F05D40402063
:1032F000E50044905FF044000080010006001FFFDD
:10330000E000200027F02420242027F020022001C4
:103310003FFE20002000000000002002200C27F2C9
:103320002514F551255F25502714208220A0F09AFE
:10333000208127FE2080208000000000100000086F
:1033400000000600800100E0FF7F3C000004000058
:1033500008000008FF01084100084100084100087A
:10336000410008FF0008FF100800200800200800A6
:1033700070F8FF3F0800000C00000800000000008B
:1033800000000000000008002008001808C047885E
:10339000FF30888408889406889420BE94608A94BC
:1033A0007F889400889C0288970488C0380A84101B
:1033B0001E640008C401080420480460C8FF3F0CD4
:1033C00004000806000000000000000000005E008D
:1033D00000040602243C243C004CFE001E7A5E7869
:1033E000705E3E480006000000007C82423C000007
:1033F00018103C1810107C1000C0000010101010A5
:103400000040000080701C023844380000447C40BA
:103410006C544C0044546C0030687C604C4C7C0014
:10342000784C7C0000047C006C546C005C543C00C4
:10343000000048000000C80000182442181818189E
:1034400000422418000C540C3C7A767C40383840FA
:10345000447C7C0038444400447C3800007C7C0080
:10346000407C7C0038646420007C7C0000447C4408
:103470008084FC04007C4400407C44007C607C0030
:10348000407C7C0438443800407C5C003864F800A0
:10349000007C3C404C547C0004447C44007C7C0018
:1034A0000C30300C1C247C0C6C106C0004487048F0
:1034B00064544C000000FE00000638C000FE00000E
:1034C0000001000180808080000001006868784071
:1034D000007E780070484800784A7E0000787800C6
:1034E000487E4A00F8A8B8C8427E780000487A4072
:1034F0000088FA00007E380000427E407808780894
:10350000487878007048780000F8F80078C8F8002B
:103510004878480000787800087C480000787800F7
:1035200018202018186878084830480088D83808CB
:10353000007878000010FE820000FF0082FE10007C
:103540000101020200000000000000000000000075
:10355000000000003F4000000000000000003000BC
:10356000400030004000000009000BC03D000BC0CF
:103570003D00090018C024407FE022403180000057
:10358000180024C01B000D803240018003801C40C5
:1035900027401C8007400040100060000000000031
:1035A000000000000000000000001F8020404020BC
:1035B0000000402020401F8000000000090006009D
:1035C0001F80060009000000040004003F80040082
:1035D0000400000000100060000000000000000077
:1035E0000400040004000400040000000000004087
:1035F0000000000000000000002001C006003800AC
:10360000400000001F802040204020401F8000001C
:10361000000010403FC000400000000018C02140E2
:1036200022402440184000001080204024402440C4
:103630001B80000002000D0011003FC0014000008F
:103640003C80244024402440238000001F802440EC
:1036500024403440038000003000200027C03800A0
:10366000200000001B802440244024401B800000D8
:103670001C0022C0224022401F80000000000000E9
:10368000084000000000000000000000046000008E
:1036900000000000000004000A00110020804040EB
:1036A000090009000900090009000000000040406D
:1036B000208011000A00040018002000234024008C
:1036C000180000001F802040274029401F400000B4
:1036D000004007C039000F0001C0004020403FC03B
:1036E000244024401B8000001F80204020402040B8
:1036F0003080000020403FC0204020401F8000005C
:1037000020403FC024402E4030C0000020403FC039
:1037100024402E00300000000F0010802040224086
:103720003380020020403FC0040004003FC020401E
:10373000204020403FC0204020400000006020206A
:1037400020203FC02000200020403FC024400B002C
:1037500030C0204020403FC020400040004000C01A
:103760003FC03C0003C03C003FC0000020403FC0C1
:103770000C4023003FC020001F80204020402040FC
:103780001F80000020403FC024402400180000009B
:103790001F802140214020E01FA0000020403FC0AA
:1037A0002440260019C0004018C024402440224074
:1037B00031800000300020403FC020403000000039
:1037C00020003F80004000403F80200020003E005D
:1037D00001C0070038002000380007C03C0007C0C7
:1037E00038000000204039C0060039C020400000E9
:1037F0002000384007C0384020000000304021C081
:103800002640384020C00000000000007FE040203B
:1038100040200000000070000C0003800040000009
:103820000000402040207FE0000000000000200059
:1038300040002000000000000010001000100010E8
:103840000010001000000000400000000000000018
:10385000000002800540054003C0004020003FC03A
:103860000440044003800000000003800440044042
:103870000640000000000380044024403FC0004098
:1038800000000380054005400340000000000440A4
:103890001FC0244024402000000002E005500550D5
:1038A0000650042020403FC00440040003C00040F4
:1038B0000000044027C0004000000000001000107D
:1038C000041027E00000000020403FC00140070036
:1038D00004C00440204020403FC0004000400000A1
:1038E00007C0040007C0040003C00000044007C074
:1038F0000440040003C00040000003800440044072
:1039000003800000041007F004500440038000000E
:10391000000003800440045007F00010044007C07A
:10392000024004000400000000000640054005407D
:1039300004C00000000004001F800440004000009C
:10394000040007800040044007C000400400070056
:1039500004C0018006000400060001C0070001C089
:1039600006000000044006C0010006C0044000003C
:103970000410071004E00180060004000000044069
:1039800005C00640044000000000000004007BE089
:1039900040200000000000000000FFF000000000D8
:1039A000000040207BE00400000000004000800098
:1039B0004000200020004000000000000000000047
:1039C00000000000000000000000000000001FCC0C
:1039D000000C000000000000000008003000600043
:1039E0000800300060000000022003FC1E200220BE
:1039F00003FC1E200220000000000E1811043FFFEF
:103A000010840C78000000000F0010840F3800C0F4
:103A1000077818840078000000780F8410C41124FF
:103A20000E9800E4008400080800680070000000A0
:103A3000000000000000000000000000000007E09F
:103A4000181820044002000000004002200418184A
:103A500007E00000000000000240024001800FF07B
:103A600001800240024000000080008000800FF8CA
:103A700000800080008000000001000D000E0000AA
:103A800000000000000000000000008000800080B6
:103A900000800080008000800000000C000C00000E
:103AA0000000000000000000000000060018006098
:103AB0000180060018002000000007F0080810042C
:103AC0001004080807F000000000080408041FFCA8
:103AD000000400040000000000000E0C101410246C
:103AE000104411840E0C000000000C181004110486
:103AF000110412880C700000000000E00320042470
:103B000008241FFC0024000000001F9810841104EA
:103B10001104108810700000000007F008881104DC
:103B2000110418880070000000001C00100010FC38
:103B300013001C001000000000000E381144108417
:103B4000108411440E38000000000700088C104457
:103B50001044088807F00000000000000000030C7B
:103B6000030C00000000000000000000000101063E
:103B70000000000000000000000000800140022062
:103B80000410080810040000022002200220022075
:103B90000220022002200000000010040808041087
:103BA000022001400080000000000E001200100CF6
:103BB000106C10800F00000003E00C1813E41424B4
:103BC00017C4082807D000000004003C03C41C40B0
:103BD000074000E4001C000410041FFC1104110441
:103BE00011040E880070000003E00C18100410048B
:103BF000100410081C10000010041FFC1004100416
:103C00001004080807F0000010041FFC1104110440
:103C100017C410040818000010041FFC1104110040
:103C200017C010000800000003E00C181004100476
:103C300010441C780040000010041FFC1084008019
:103C4000008010841FFC10040000100410041FFCEE
:103C50001004100400000000000300011001100116
:103C60001FFE10001000000010041FFC1104038050
:103C70001464181C1004000010041FFC100400043D
:103C800000040004000C000010041FFC1F0000FCD6
:103C90001F001FFC1004000010041FFC0C04030094
:103CA00000E010181FFC100007F0080810041004B2
:103CB0001004080807F0000010041FFC1084108096
:103CC000108010800F00000007F008181024102446
:103CD000101C080A07F2000010041FFC1104110058
:103CE00011C011300E0C000400000E1C11041084D1
:103CF000108410441C3800001800100010041FFC31
:103D0000100410001800000010001FF81004000438
:103D1000000410041FF8100010001E0011E0001C29
:103D2000007013801C0010001FC0103C00E01F003A
:103D300000E0103C1FC000001004180C163401C035
:103D400001C01634180C100410001C00130400FCF1
:103D500013041C00100000000804101C10641084E0
:103D600013041C04101800000000000000007FFE77
:103D70004002400240020000000030000C000380BE
:103D80000060001C000300000000400240024002EE
:103D90007FFE000000000000000000002000400046
:103DA000400040002000000000010001000100016F
:103DB000000100010001000100004000400020005F
:103DC00000000000000000000000009801240144F1
:103DD0000144014400FC000410001FFC00880104A1
:103DE00001040088007000000000007000880104D9
:103DF0000104010400880000000000700088010434
:103E0000010411081FFC0004000000F801440144F3
:103E10000144014400C800000000010401040FFC3B
:103E20001104110411001800000000D60129012915
:103E3000012901C90106000010041FFC00840100D3
:103E40000100010400FC000400000104190419FC35
:103E50000004000400000000000000030001010154
:103E6000190119FE0000000010041FFC002400408E
:103E700001B4010C010400000000100410041FFC38
:103E80000004000400000000010401FC0104010022
:103E900001FC0104010000FC010401FC008401009C
:103EA0000100010400FC0004000000F8010401040A
:103EB0000104010400F80000010101FF0085010474
:103EC00001040088007000000000007000880104F8
:103ED0000104010501FF00010104010401FC00844B
:103EE0000104010001800000000000CC0124012435
:103EF000012401240198000000000100010007F8DE
:103F00000104010400000000010001F800040004A5
:103F10000004010801FC0004010001800170000C94
:103F2000001001600180010001F0010C003001C0AF
:103F30000030010C01F0010000000104018C00744C
:103F40000170018C01040000010101810171000E6A
:103F5000001801600180010000000184010C01349F
:103F600001440184010C000000000000000000007A
:103F700001003EFC40024002000000000000000082
:103F8000FFFF0000000000000000400240023EFC75
:103F900001000000000000000000600080008000C0
:103FA0004000400020002000000000000000000051
:103FB0000000000000000000000000000000000001
:103FC00000000000000000000000000000000000F1
:103FD00000000000000000000000000F80380FFE0D
:103FE000380F8038000000000000000000000000D2
:103FF0000000000000000100000600000C00003876
:1040000000003100000600000C0000380000300005
:10401000000000000000000061800067F807F980E0
:104020000061800061800061800061800067F807A6
:10403000F98000618000000000000000000001C065
:10404000E003E0F00630080418081FFFFE040E0825
:104050000787F00381E000000000000001F0000687
:104060000C00040408060C7001F9C0000E00003BAF
:10407000E000EC18070808040C180003E00000003A
:104080000001E00007F003F818041C0804170807F3
:10409000E1D003C0E00023B0003C0800200800008D
:1040A000100000000000000100003100003200009C
:1040B0001C000000000000000000000000000000E4
:1040C00000000000000000000000000000000000F0
:1040D00000000000000000007F0001FFC00780F02A
:1040E0000C00181000042000020000000000002056
:1040F00000021000040C00180780F001FFC0007FD0
:1041000000000000000000000000000000000000AF
:10411000000000004200006600006600003C000055
:10412000180003FFC0001800003C00006600006695
:104130000000420000000000080000080000080025
:1041400000080000080001FFC0000800000800008F
:104150000800000800000800000000000001000046
:104160003100003200001C000000000000000000D0
:10417000000000000000000000000000000000003F
:1041800008000008000008000008000008000008FF
:1041900000000800000800000800000800000000FF
:1041A0000000000000000000380000380000380067
:1041B00000000000000000000000000000000000FF
:1041C0000000000000000000000600001C0000705D
:1041D000000180000E0000380000C0000700001C35
:1041E0000000300000000000000000007F8001FFA0
:1041F000E003807006001804000804000806001898
:1042000003807001FFE0007F8000000000000000DC
:10421000000001000801000801000803FFF807FF83
:10422000F80000080000080000080000000000007E
:1042300000000001C03802C05804009804011804AE
:104240000218040418061C1803F81801E0F800000E
:104250000000000000000001C0E003C0F0040008FE
:1042600004080804080806180803F41801E7F00019
:1042700001E0000000000000000000000300000D4D
:104280000000110000610000810803010807FFF829
:104290000FFFF80001080001080000000000000006
:1042A00000E007FCD00608080610080610080610F3
:1042B00008061838060FF00607C0000000000000CE
:1042C000000000003F8001FFE00384300208180472
:1042D0001008041008041008071810030FF0000756
:1042E000C000000000000000000003C00007000044
:1042F0000600000600F80607F806180006E00007AA
:10430000000006000000000000000001E1E003F7EB
:10431000F0063410041808041808040C08040C08EB
:1043200006161803F3F001C1E000000000000000D1
:10433000F80003FC300306380402080402080402F3
:10434000080404100308F001FFC0007F0000000013
:10435000000000000000000000000000000000005D
:104360007038007038007038000000000000000055
:10437000000000000000000000000000000000003D
:1043800000000000301A00301C0000000000000097
:104390000000000000000000000000000000000815
:1043A0000000140000220000410000808001004055
:1043B00002002004001008000800000000000000B7
:1043C0002100002100002100002100002100002127
:1043D0000000210000210000210000210000000059
:1043E0000000000000000800080400100200200186
:1043F00000400080800041000022000014000008FE
:104400000000000000000003C00004C00004000021
:10441000080038080F380808380810000C3000076A
:10442000E00003C000000000000000003F8000FF2B
:10443000E0038070020F1006708804C088048308AF
:10444000047F8802C09003012000FE4000000800A5
:1044500000180001F8003E0801C20007020007E250
:104460000000FE00001FC80001F80000380000082E
:1044700004000807FFF807FFF80408080408080408
:10448000080804080806180803F41801E7F00001FA
:10449000E0000000000000003F8001FFE0038070AA
:1044A00002001804000804000804000804001006B4
:1044B00000200780C000000004000807FFF807FF85
:1044C000F8040008040008040008040018020010A2
:1044D00003807001FFE0007F8000000004000807F7
:1044E000FFF807FFF804080804080804080804088F
:1044F00008043E08040008060018010060000000DF
:1045000004000807FFF807FFF8040808040800047F
:104510000800040800043E000600000600000180B8
:1045200000000000000000003F8001FFE0038070F9
:104530000600180400080402080402080203F00739
:1045400083F000020000020004000807FFF807FFE4
:10455000F80408080008000008000008000008002F
:1045600004080807FFF807FFF8040008000000002F
:10457000000004000804000804000807FFF807FF13
:10458000F80400080400080400080000000000000F
:104590000000000000060000070000010400010404
:1045A000000104000307FFFE07FFFC0400000400F5
:1045B0000004000004000807FFF807FFF8040C08D7
:1045C000001800003E0004C7800503C80600F80478
:1045D000003804001800000804000807FFF807FF6F
:1045E000F8040008000008000008000008000008A7
:1045F0000000080000180000600000000400080728
:10460000FFF807800807FC00007FC00003F80007E0
:10461000C000780007800807FFF807FFF8040008CB
:1046200004000807FFF807000803C00000E00000CE
:104630003800001E000007000001C00400F007FF62
:10464000F8040000000000007F8001FFE00380709C
:1046500006001804000804000806001803003001D2
:10466000FFE0007F8000000004000807FFF807FF5C
:10467000F804040804040004040004040004040012
:10468000060C0003F80001F000000000000000002C
:104690007F8001FFE003807006008804008804002A
:1046A000C806003C03003E01FFE6007F84000000D6
:1046B00004000807FFF807FFF804080804080004CE
:1046C0000C00040F00040BC00610F003F03801E0EA
:1046D0000800000800000001E0F803F03006301088
:1046E000041808041808040C08040C080206180230
:1046F00007F00781E00000000180000600000400D0
:104700000004000004000807FFF807FFF804000891
:1047100004000004000006000001800004000007FF
:10472000FFE007FFF0040018000008000008000088
:104730000800000800000804001007FFE004000063
:1047400004000006000007E00007FE00041FE00070
:1047500001F80000380001E0043E0007C000060038
:104760000004000004000007E00007FFC0041FF879
:104770000007C007F80007FF80043FF80007C004E7
:10478000F800070000040000000000040008060014
:104790001807C07805F1C8003E00001F800463E8D8
:1047A0000780F80600180400080000000400000656
:1047B000000007800007E008047C08001FF80007DD
:1047C000F800180804E008070000060000040000D4
:1047D0000000000100080600380400F80403E804A3
:1047E0000F08047C0805F00807C00807001804003B
:1047F0006000000000000000000000000000000059
:104800000000003FFFFE20000220000220000220E6
:10481000000220000200000000000000000008006C
:104820000007000000C0000038000006000001C0C2
:1048300000003000000E0000010000000000000039
:1048400000002000022000022000022000022000C0
:10485000023FFFFE0000000000000000000000001A
:104860000000000000000000000800001000003000
:1048700000002000003000001000000800000000D0
:104880000000000000000100000100000100000124
:104890000000010000010000010000010000010013
:1048A0000001000001000001000000000000000005
:1048B0000020000020000010000010000000000098
:1048C00000000000000000000000000000000000E8
:1048D00000F00019F8001B18002208002608002428
:1048E00008002410003FF8001FF80000080000181E
:1048F00000000004000007FFF80FFFF00018180088
:104900001008002008002008003018001FF0000FD9
:10491000C00000000000000007C0001FF0001830B9
:10492000002008002008002008003C08001C10009F
:1049300000600000000000000000000007C0001F31
:10494000F00038180020080020080020080410108B
:1049500007FFF80FFFF0000010000000000000004B
:1049600000000007C0001FF00012300022180022D3
:1049700008002208003208001E10000E200000006F
:1049800000000000200000200800200801FFF803BC
:10499000FFF8062008042008042008072000030070
:1049A0000000000000000000000E000E6E001FF36B
:1049B0000031B10020B10020B1003191001F13007F
:1049C0002E1E00200E00300000000004000807FF2B
:1049D000F80FFFF800100800200000200000200859
:1049E000003FF8001FF80000080000000000000071
:1049F0000000002008002008002008063FF8063FBD
:104A0000F800000800000800000800000000000096
:104A1000000000000000000003000003002001006F
:104A20002001002003063FFE063FFC0000000000BE
:104A30000000000000000004000807FFF80FFFF866
:104A4000000188000300002FC00038F80020380063
:104A50002008000008000000000000000000040022
:104A60000804000804000807FFF80FFFF80000081A
:104A700000000800000800000000000000200800FE
:104A80003FF8003FF8001008002000003FF8003F0A
:104A9000F8001008002000003FF8003FF800000870
:104AA000000000002008003FF8003FF80010080058
:104AB0001000002000002008003FF8001FF8000050
:104AC000080000000000000007C0000FF0001830D0
:104AD00000300800200800200800300800183000CE
:104AE0000FF00007C0000000000000002001003FA0
:104AF000FF003FFF001011002009002008002008DF
:104B0000003038001FF0000FC0000000000000005F
:104B100007C0001FF00038180020080020080020FF
:104B200009001011001FFF003FFF000001000000FE
:104B3000002008002008002008003FF8003FF8008F
:104B40000808001008002008002000003000003095
:104B500000000000000000000000000C78001E189B
:104B60000033080023080021080021880021980054
:104B700030F000386000000000000000200000203D
:104B80000000200000FFF003FFF8002008002008CC
:104B900000200800003000000000000000000000BD
:104BA0002000003FF0007FF800001800000800001F
:104BB00008002010003FF8007FF000001000000007
:104BC000000000002000003000003C00003F80009A
:104BD00023F0000078000070002380003C000030CB
:104BE00000002000002000003C00003FE00023F80F
:104BF0000000E0002700003E00003FE00021F80038
:104C000001E0003E0000200000000000200800201D
:104C100008003838003E680027800003C8002CF8E0
:104C200000383800201800200800000000000000B4
:104C30002000003003003C01003F830023EC000013
:104C400070002380003C00002000002000000000D5
:104C50000000000000000038080020380020F800A4
:104C600023E8002F88003E080038080020180000C4
:104C700070000000000000000000000000000000C4
:104C80000000000008000014001FF7FC30000620A0
:104C90000002000000000000000000000000000012
:104CA00000000000000000000000FFFFFF00000007
:104CB00000000000000000000000000000000000F4
:104CC00000002000023000061FF7FC00140000085E
:104CD00000000000000000000000000000000000D4
:104CE00000000018000060000040000040000020AC
:104CF00000001000000800000400000400000C0088
:104D0000001000000003030601040602050003056D
:104D10001F1C1F1E1F1E1F1F1E1F1E1F3031323360
:104D200034353637383941424344454640305800DF
:104D30003031323334353637383961626364656611
:104D4000403078000400000800000000000000026D
:104D500000010000100000003F00000064656300D7
:104D60006964000072756E74696D650068656C70C9
:104D7000000000006C697374000000006865780032
:104D80007538205254435F5365742875313620734B
:104D9000796561722C753820736D6F6E2C753820B3
:104DA000736461792C753820686F75722C753820A2
:104DB0006D696E2C7538207365632900766F6964A0
:104DC0002077726974655F6164647228753332207C
:104DD000616464722C7533322076616C29000000A6
:104DE00075333220726561645F6164647228753363
:104DF0003220616464722900766F69642064656C96
:104E000061795F6D7328753136206E6D73290000EE
:104E1000766F69642064656C61795F75732875339A
:104E200032206E7573290000484E000800000020F3
:104E3000B80300006C010008AC4F0008B803002064
:104E4000380B0000C80100081184A24A04A009011F
:104E500002030406070809180980908C848484F5ED
:104E60008605051284948C80080C11808084464944
:104E70002810102C23401E2920080D1140205048D6
:104E800044C3444850204080231C404044012A7FB2
:104E90000503114040172424A4FEA3222322CC02A0
:104EA00014FF15080601FF2B0104010D10FF02027B
:104EB000025E1F30119690909104061198141350C1
:104EC00030393A3E44847E06050A01136CE09F881F
:104ED000010A110880690105144880403F39574B89
:104EE00004FC0701124A20015A3F0801111724242B
:104EF000A4FE23222B3E22010A113E80180B06013C
:104F0000FF0106404949497F04021241380A806086
:104F1000F80704E42424E4850111220122FF080893
:104F2000130F04040F40807FBF1EE4A4AFA4A43E6F
:104F30001B0F04050111180F40304F288AFA0A2868
:104F4000410559817F014E011D13584D1B086C040A
:104F50001A74041A60041A7C041A5C041A64041398
:104F6000AF1E1B08E0081349301B08BC0813AD1C1A
:104F70001B08F8081AF90813104E14080D161B0820
:104F80008010138802142009271408551F140805DF
:104F9000201B08790C3A05C901DE2D010203040427
:0C4FA000000900060708090204060800CA
:0400000508000131BD
:00000001FF
