:020000040800F2
:10000000A00800202D02000883080008410800080D
:100010007F08000825070008C7120008000000003C
:100020000000000000000000000000007D0D00083E
:10003000290700080000000015090008910E0008BB
:10004000470200084702000847020008150C000894
:10005000470200084702000847020008470200085C
:10006000470200084702000847020008470200084C
:10007000470200084702000847020008470200083C
:10008000470200084702000847020008470200082C
:10009000470200084702000847020008470200081C
:1000A000470200084702000847020008470200080C
:1000B0004702000847020008F50E00084702000842
:1000C00047020008470200084702000847020008EC
:1000D00047020008A5100008470200084702000870
:1000E00047020008470200084702000847020008CC
:1000F00047020008470200084702000847020008BC
:1001000047020008470200084702000847020008AB
:10011000470200084702000847020008470200089B
:10012000470200084702000847020008470200088B
:1001300000F002F800F06BF80AA090E8000C82448E
:100140008344AAF10107DA4501D100F060F8AFF26B
:10015000090EBAE80F0013F0010F18BFFB1A43F0A5
:100160000103184754250000742500000A444FF08D
:10017000000C10F8013B13F0070408BF10F8014B06
:100180001D1108BF10F8015B641E05D010F8016B4B
:10019000641E01F8016BF9D113F0080F1EBF10F8AF
:1001A000014BAD1C0C1B09D16D1E58BF01F801CBD2
:1001B000FAD505E014F8016B01F8016B6D1EF9D555
:1001C0009142D6D37047000000230024002500266A
:1001D000103A28BF78C1FBD8520728BF30C148BFAA
:1001E0000B607047642900F09F80752900F09C80A7
:1001F000782900F0D580632900F02982732900F066
:100200002E82002070471FB51FBD10B510BD00F035
:1002100059FA1146FFF7F7FF01F0DEF800F077FA20
:1002200003B4FFF7F2FF03BC01F056F8094880471A
:1002300009480047FEE7FEE7FEE7FEE7FEE7FEE7C8
:10024000FEE7FEE7FEE7FEE704480549054A064BE0
:1002500070470000950E000831010008A002002040
:10026000A0080020A0040020A00400207047000087
:100270000FB4044910B503AA029800F0F5F910BCB8
:100280005DF814FB2C00002070B5044685690068F9
:10029000C10601D5302600E02026C00707D070BD7A
:1002A000D4E9012130469047206A401C20626D1E2F
:1002B000F6D570BD70B5044685690078C00707D1D2
:1002C00070BDD4E9012120209047206A401C2062A3
:1002D0006D1EF6D570BD70B50C460546012A05D0D9
:1002E0002878800600D5EA69002302E0012305E0B2
:1002F0005B1C934202D2E05C0028F9D1A869E618A1
:10030000C01AA861286A184428622846FFF7BCFF73
:1003100004E0D5E9012114F8010B9047B442F8D369
:100320002846FFF7C7FF70BD2DE9F04106460024BF
:1003300010687529314616A510D0AFF3008000284B
:1003400002DA404213A507E031688A0701D512A5F9
:1003500002E0490704D511A5012401E0AFF30080B4
:1003600000210A2206F1240709E0B0FBF2FCB0FBF1
:10037000F2F302FB1C00303078541846491C002868
:10038000F3D123462A463046BDE8F04100F0FCB8E0
:10039000000000002D0000002B00000020000000E5
:1003A00070B504460D4621461068AFF300802188E1
:1003B000090502D50F4A7A4402E00E4A7A440E3209
:1003C000002104F1240305E000F00F060009965D0A
:1003D0005E54491C0028F7D120780023000704D57B
:1003E000702D02D009B1022311322046BDE87040C1
:1003F00000F0CAB8F22100002DE9F05F89460446FA
:100400004FF0000ADFF874B1FB44C0F820A020468A
:10041000E1688847002874D0252806D0D4E9012156
:100420009047206A401C2062F1E700265F46204684
:10043000E16888472028054607DB312D05D2781969
:1004400010F8200C08B10643F1E7B00701D526F0FB
:100450000406C4F81CA00027C4F818A02A2D09D04F
:10046000284600F032FF38B304EB8708303DC8F867
:10047000185019E059F8041B204604EB87029161DB
:10048000E1688847012F054618D1E069002820DA85
:1004900026F020061DE0D8F8180000EB800005EBE0
:1004A00040003038C8F818002046E1688847054603
:1004B00000F00BFF0028EED1012F0AD02E2D08D11D
:1004C0002046E16888477F1C0546022F46F020063B
:1004D000C4DBA069002803DA404246F00106A061AF
:1004E000F00701D026F010066C2D0BD0682D09D036
:1004F0004C2D39D06A2D35D0742D35D07A2D33D08E
:1005000016E038E0E1682F4620468847B8420546A5
:1005100009D16C2F26D04FF48060E1680643204655
:100520008847054604E06C2F1AD04FF480700643CC
:100530000DB3A5F14100192802D8203546F4006614
:100540004A462946204626604E46FFF74BFE80B1BC
:1005500001280BD0F61D26F0070000F1080956E728
:100560004020E4E78020D8E70020D6E706F1040920
:100570004DE7284652E7206ABDE8F09FC8210000F9
:1005800070477047704770472DE9F0470D46994610
:100590009246044600F124080168880604D5E06903
:1005A00021F01001216000E00120A84201DD471B7D
:1005B00000E00027A1697A1902EB0900081AA0617E
:1005C0002078C00602D42046FFF75EFE002608E031
:1005D000D4E901211AF806009047206A401C761CD5
:1005E00020624E45F4DB2078C0060AD52046FFF78E
:1005F0004BFE06E0D4E9012130209047206A401CE0
:100600002062381EA7F10107F4DC07E0D4E90121DC
:1006100018F805009047206A401C2062281EA5F1AA
:100620000105F3DC2046FFF745FE2078000602D5E1
:100630000220BDE8F0870120FBE710B5436913B144
:10064000AFF3008001E0FFF746FE012010BD1278F5
:1006500000F124010A7000224A700122EDE71168BE
:100660004FF0FF32E9E70000074B70B50D467B44C1
:1006700000F011F80446284600F020F810B14FF0C1
:10068000FF3070BD204670BD4B0D000001694A1C53
:1006900002610878704700B58FB0CDE901310021C3
:1006A000059105497944CDE9031011466846FFF7E5
:1006B000A3FE0FB000BD0000E5FFFFFF007B00F0D0
:1006C00080007047754600F029F8AE46050069467F
:1006D000534620F00700854618B020B5FFF7B4FD5B
:1006E000BDE820404FF000064FF000074FF0000833
:1006F0004FF0000B21F00701AC46ACE8C009ACE8B4
:10070000C009ACE8C009ACE8C0098D467047044692
:10071000AFF300802046FFF783FD000000487047DC
:100720004002002000BFFEE770472DE9F04102467D
:1007300000250026002000230024002791F803C094
:100740000CF00F0591F803C00CF0100CBCF1000F79
:1007500003D091F802C04CEA050591F800C0BCF145
:10076000000F31D0146800202BE04FF0010C0CFA80
:1007700000F3B1F800C00CEA03069E4220D18300CA
:100780004FF00F0C0CFA03F7BC4305FA03FC4CEADC
:10079000040491F803C0BCF1280F06D14FF0010CFE
:1007A0000CFA00FCC2F814C00AE091F803C0BCF1D6
:1007B000480F05D14FF0010C0CFA00FCC2F810C034
:1007C000401C0828D1D31460B1F800C0BCF1FF0F61
:1007D00034DD546800202EE000F1080C4FF00108D1
:1007E00008FA0CF3B1F800C00CEA03069E4221D1CE
:1007F00083004FF00F0C0CFA03F7BC4305FA03FC1F
:100800004CEA040491F803C0BCF1280F05D100F1B3
:10081000080C08FA0CF8C2F8148091F803C0BCF177
:10082000480F07D100F1080C4FF0010808FA0CF846
:10083000C2F81080401C0828CED35460BDE8F08177
:1008400000BFFEE70146CA1701EB92729210A1EBBE
:10085000820292B9642091FBF0F200FB121050B9B1
:100860004FF4C87091FBF0F200FB121008B90120A0
:1008700070470020FCE70120FAE70020F8E700BFFE
:10088000FEE7704770B5002100230F22C47804B33F
:10089000154C246804F4E064C4F5E064210AC1F155
:1008A0000403CA40447804FA03F1847814402143D5
:1008B00009010E4C0678A155047804F01F050124A7
:1008C000AC4005786D11AD0005F1E025C5F800419B
:1008D00009E0047804F01F050124AC40044D0678BB
:1008E000761145F8264070BD0CED00E000E400E014
:1008F00080E100E002490143024A116070470000B4
:100900000000FA050CED00E00149086270470000A4
:1009100000000E427047000029B1064AD269024326
:10092000044BDA6104E0034AD2698243014BDA6185
:10093000704700000010024029B1064A9269024344
:10094000044B9A6104E0034A92698243014B9A6125
:10095000704700000010024030B500210022002442
:1009600000232D4D6D6805F00C0121B1042905D03F
:10097000082923D105E0294D056022E0274D0560B7
:100980001FE0254D6D6805F47012234D6D6805F468
:100990008034022505EB92421CB9214D5543056078
:1009A0000BE01D4D6D6805F400351DB11C4D554320
:1009B000056002E0194D5543056002E0174D0560E2
:1009C00000BF00BF144D6D6805F0F0010909154D19
:1009D0006B5C0568DD4045600F4D6D6805F4E061B6
:1009E000090A104D6B5C4568DD4085600A4D6D68F5
:1009F00005F46051C90A0B4D6B5C4568DD40C5606C
:100A0000054D6D6805F44041890B074D6B5CC56869
:100A1000B5FBF3F5056130BD0010024000127A000D
:100A200000093D001400002024000020024909882C
:100A30008143014A11807047042800400348008820
:100A400040F0100001490880704700000428004071
:100A5000034800884FF6EF7108400149088070474D
:100A60000428004070B500260024002500F07AF824
:100A700006463848B6FBF0F437480088A0423CD020
:100A800035490C8040F2B27510E02846FFF7DAFED7
:100A900040B1B4F5B77F02D3A4F5B77404E0681C85
:100AA00085B206E0A4F26D14681C85B2B4F5B67F79
:100AB000EBD800BF29488580002516E027498888A3
:100AC000FFF7C0FE30B1012D04D11D2C01D31D3C18
:100AD00009E00CE02248405DA04203D82048405D78
:100AE000241A00E003E0681C85B21C2CE6D200BF8B
:100AF000681C1A498871601CC8711648B6FBF0F171
:100B000000FB11644FF46160B4FBF0F0134908700E
:100B10004FF46160B4FBF0F100FB11403C21B0FBED
:100B2000F1F00E4948704FF46160B4FBF0F100FB46
:100B300011403C21B0FBF1F201FB12000749887023
:100B40000B46DA799979988800F028F803490872F9
:100B5000002070BD805101003200002034020020CE
:100B6000A0250008002103480188001F008841EAF1
:100B7000004070471C28004001460020064A1288A9
:100B80000A40D0B2044A121F12880A4012B108B1BA
:100B9000012000E00020704704280040F0B5034623
:100BA0000C461546642093FBF0F0C6B2642093FB1C
:100BB000F0F700FB1730C1B2132E02DD01F1640023
:100BC000C1B20846CF1701EB977701EBA707BAB27E
:100BD000072092FBF0F700FB172082B25719601E26
:100BE000DFF82CC01CF80000384482B2CF1701EBAC
:100BF0009777BF10A1EB87071FB9032C01DA501EAE
:100C000082B2072092FBF0F700FB1720C0B2F0BDC4
:100C1000942500080EB50120FFF7AEFF08B1FFF7DD
:100C200021FF0220FFF7A8FFA0B10220FFF7FEFE80
:100C3000FFF718FF0A48807809494978084A12786E
:100C4000CDE9002102900648C3798279818805A008
:100C5000FFF70EFB0520FFF7E9FE00F085F80EBD5B
:100C600034020020416C61726D2054696D653A2533
:100C7000642D25642D25642025643A25643A256475
:100C80000A0000002DE9F05F06460F46904699469F
:100C9000DDE90AAB002440F2B270864203DB40F685
:100CA0003300864202DD0120BDE8F09F40F2B275BC
:100CB0000AE02846FFF7C6FD10B12048044401E0D1
:100CC0001F480444681C85B2B542F2DB781EC7B2E7
:100CD000002510E01B48405D40F2A321484304EB8F
:100CE000C0143046FFF7AEFD18B1012D01D11648F2
:100CF0000444681C85B2BD42ECDBA8F1010040F25F
:100D0000A321484304EBC014C9EB4910C0EB0920F0
:100D100004EB0014CAEB0A1004EB80045C440121CC
:100D20004FF0C050FFF7F8FD0120FFF7EDFD204622
:100D300000F00CF800F018F80020B5E70085E2019B
:100D40008033E101A02500088051010000B5024672
:100D5000FFF774FE100C03490880091D0A80FFF795
:100D600077FE00BD1828004000BF0348008800F04F
:100D700020000028F9D0704704280040704710B5C3
:100D800000F002F810BD00000CB5002001900090AA
:100D90003348006840F480303149086000BF304873
:100DA000006800F4003000900198401C0190009809
:100DB00018B90198B0F5A06FF1D12948006800F486
:100DC000003010B10120009001E000200090009858
:100DD000012843D12348006840F0100021490860F1
:100DE0000846006820F0030008600846006840F0EC
:100DF000020008601A48406819494860084640687F
:100E000048600846406840F4806048600846406892
:100E100020F47C1048600846406840F4E8104860C0
:100E20000846006840F08070086000BF0C48006809
:100E300000F000700028F9D00948406820F0030055
:100E4000074948600846406840F00200486000BF1B
:100E50000348406800F00C000828F9D10CBD0000E0
:100E60000010024000200240042808D14FF0E02189
:100E7000096941F004014FF0E022116107E04FF0F1
:100E8000E021096921F004014FF0E022116170476F
:100E90007047000010B51348006840F00100114988
:100EA000086008464068104908400E4948600846F6
:100EB00000680E4908400B4908600846006820F4A5
:100EC000802008600846406820F4FE0048604FF427
:100ED0001F008860FFF753FF4FF00060044908606F
:100EE00010BD0000001002400000FFF8FFFFF6FEFA
:100EF00008ED00E010B501210A4800F035F801289E
:100F00000AD10949086980470021064800F048F8DD
:100F10006421044800F042F80121024800F009F879
:100F200010BD00000008004078000020CA43028283
:100F30007047CA430282704721B1028842F0010221
:100F4000028004E002884FF6FE731A400280704768
:100F50000146888C704702460020138A0B400BB173
:100F6000012000E00020704730B502460020002339
:100F70000024158A05EA0103958905EA010413B1E5
:100F80000CB1012000E0002030BD1AB183890B4371
:100F9000838102E083898B43838170478185704719
:100FA00081847047002202881D4B98420ED01D4B51
:100FB00098420BD0B0F1804F08D01B4B984205D01F
:100FC0001A4B984202D01A4B984204D14FF68F73B5
:100FD0001A404B881A43174B984207D0164B984239
:100FE00004D04FF6FF431A40CB881A4302808B8807
:100FF00083850B8803850A4B98420BD0094B984296
:1010000008D00E4B984205D00D4B984202D00D4BA4
:10101000984201D10B7A0386012383827047000036
:10102000002C014000340140000400400008004052
:10103000000C00400010004000140040004001403F
:1010400000440140004801407FB505460C4601219F
:101050000420FFF761FCADF80850ADF80440002013
:10106000ADF80A00ADF8060001A90D48FFF79AFF98
:10107000012241210A48FFF788FF1E208DF8000059
:1010800003208DF801008DF8020001208DF8030087
:101090006846FFF7F7FB01210148FFF74DFF7FBDD1
:1010A0000008004010B540F225511D4800F04AF8F4
:1010B00010B31B4800F002F9C4B21A48008800F4CB
:1010C0000040C8B91748008800F4804060B10A2C7D
:1010D00003D000201349088020E01248008840F423
:1010E00000401049088019E00D2C06D10D480088F9
:1010F00040F480400B49088010E00A480088C0F3A3
:101100000D0009490C5407480088401C0549088017
:1011100008460088C72801DD0020088010BD0000B7
:1011200000380140300000206C01002021B182898C
:1011300042F40052828104E082894DF6FF731A4026
:101140008281704770B502460024002300250020EC
:1011500040F66A16B14200D100BFC1F3421501F05A
:101160001F03012606FA03F3012D02D196893340AD
:1011700006E0022D02D1168A334001E0968A334000
:101180000C12012606FA04F41688344013B10CB18F
:10119000012000E0002070BDF0B5034600240026C9
:1011A0000025002040F66A17B94200D100BF18465A
:1011B000C1F3421401F01F06012707FA06F5012CBE
:1011C00001D10C3004E0022C01D1103000E01430C9
:1011D0001AB107682F43076002E00768AF43076052
:1011E000F0BD00002DE9F04786B005460E4600240C
:1011F000A24600BFA1460027B08900B100BF2F461C
:101200002C8A4CF6FF700440F08804432C82AC8991
:101210004EF6F3100440B0883189084371890843C1
:101220000443AC81AC8A4FF6FF400440B0890443CC
:10123000AC8201A8FFF790FB1F48874202D1DDF87E
:1012400010A001E0DDF80CA0A88900F4004040B136
:101250000AEBCA0000EB0A1031684900B0FBF1F854
:1012600007E00AEBCA0000EB0A1031688900B0FB06
:10127000F1F86420B8FBF0F004012009642101FBBF
:101280001089A88900F4004040B1322000EBC90069
:10129000B0FBF1F000F00700044308E0322000EB5F
:1012A00009106421B0FBF1F000F00F0004432C8121
:1012B00006B0BDE8F087000000380140014688888C
:1012C000C0F30800704700BFFEE730380A2801D29B
:1012D0000120704700207047014600BF70470000A2
:1012E00010B56FF00400FFF7BFFD0A4800680A4917
:1012F000B0FBF1F0094908700846007800EB4001A6
:10130000C1EBC0104FF6FF7101EAC000044908802C
:1013100010BD00000000002000127A00280000200C
:101320002A0000200146114A12884A434FF0E02368
:101330005A6100229A611A46126942F001021A614A
:1013400000BF4FF0E022106900F001021AB100F472
:101350008032002AF5D04FF0E022126922F001021B
:101360004FF0E0231A6100229A6170472A000020A2
:101370000146114A12784A434FF0E0235A61002295
:101380009A611A46126942F001021A6100BF4FF0D9
:10139000E022106900F001021AB100F48032002A44
:1013A000F5D04FF0E022126922F001024FF0E02365
:1013B0001A6100229A6170472800002000BF054A88
:1013C000128802F04002002AF9D0C2B2014B1B1D64
:1013D0001A8070470038014010B50024FFF780FFE5
:1013E0004FF4A060FFF786FA4FF4E13000F006F802
:1013F000002010BD014608687047000010B586B097
:101400000446012144F20400FFF796FA4FF40070FD
:10141000ADF8140003208DF8160018208DF8170081
:1014200005A91C48FFF781F94FF48060ADF814005E
:1014300004208DF8170005A91648FFF776F9252036
:101440008DF8000003208DF801008DF802000120C6
:101450008DF803006846FFF715FA01940020ADF8F7
:101460000800ADF80A00ADF80C00ADF810000C2033
:10147000ADF80E0001A90848FFF7B4FE012240F2C2
:1014800025510548FFF788FE01210348FFF74EFE6E
:1014900006B010BD000801400038014030B595B0DD
:1014A000054613AB12AA09A9284600F039FA0446EA
:1014B00014B1204615B030BD0020149026E022491A
:1014C00009689DF8502001EBC20113AB11AA4868CE
:1014D00001A900F025FA04460CB12046EAE709A963
:1014E00001A800F0BBFC60B99DF844009DF84810CD
:1014F000884201DD0220DDE79DF850001249887521
:101500000AE09DF85000401CC0B214900E48007DC7
:101510009DF850108842D2DC00BF0B48007D9DF83A
:101520005010884201D10420C4E714A9284600F0D5
:10153000D7FA04460CB12046BCE79DF8500002499A
:1015400048750020B6E70000780000202DE9F04142
:101550009AB09C48847D007DA04202DC1AB0BDE8B0
:10156000F0819849096801EBC40106AB07AA4868F5
:1015700008A900F0D5F908A993A0FEF779FE002686
:1015800044E09048008B0121B1400840D8B12221AD
:101590008FA0FEF76DFE304600F028FB894924310C
:1015A000471839468BA0FEF763FE222188A0FEF77C
:1015B0005FFE304600F01AFB82492431084410A92E
:1015C00041F8260018E0304600F010FB7D49243138
:1015D000085810A941F826007A48C07D30B910A8F3
:1015E00050F826107CA0FEF743FE05E010A850F846
:1015F00026107AA0FEF73CFE9DF81C00401EB0426B
:1016000002D078A0FEF734FE701CC6B29DF81C0014
:101610008642B6DB74A0FEF72BFE00F039FB69486A
:10162000407D0B280DD2DFE800F0060D151E273295
:101630003F4E5F7287006349096851F83400804764
:10164000054690E05F4A126852F8341010988847B7
:10165000054688E05B4B1B6853F83420DDE9100138
:10166000904705467FE0574F3F6857F8343010A841
:1016700007C89847054676E0DFF848C1DCF800C0A7
:101680005CF8347010A80FC8B84705466BE0149892
:10169000DFF830C10090DCF800C05CF8347010A8AE
:1016A0000FC8B84705465EE0DDE91401DFF814C154
:1016B000CDE90001DCF800C05CF8347010A80FC858
:1016C000B84705464FE0DDE914121698DFF8F4C07C
:1016D000CDE900120290DCF800C05CF8347010A86C
:1016E0000FC8B84705463EE0DDE91423DDE91610D2
:1016F000DFF8D0C0CDE90023CDE90210DCF800C04E
:101700005CF8347010A80FC8B84705462BE0DDE937
:101710001523DDE91710CDE90123CDE90310149855
:10172000DFF8A0C00090DCF800C05CF8347010A8AE
:101730000FC8B847054616E0DDE91623DDE91810A5
:10174000CDE90223CDE90410DDE91401DFF874C00E
:10175000CDE90001DCF800C05CF8347010A80FC8B7
:10176000B847054600BF00BF00F050FA9DF81800CA
:1017700001280CD11348C07D20B929461BA0FEF7D3
:1017800077FD07E029461BA0FEF772FD02E018A0D6
:10179000FEF76EFD0B4890F8EC0088B10948D0F8D0
:1017A000F0000A21B0FBF1F201FB12070548D0F866
:1017B000F000B0FBF1F83A46414611A0FEF758FDA3
:1017C00000BFCBE6780000200D0A2573280000003A
:1017D0002563000025730000256C750030582558DE
:1017E000000000002C000000290000003D256C7561
:1017F0003B0D0A003D305825583B0D0A0000000003
:1018000046756E6374696F6E2052756E2054696DF3
:10181000653A25642E2531646D730D0A00000000C1
:10182000F0B503461546002000220026002455E0AE
:101830001F782C2F01D104B901221F78292F01D044
:101840001F780FB904B94AE0002E34D11F78302F29
:1018500002DB1F78392F11DD1F78612F02DB1F7823
:10186000662F0BDD1F78412F02DB1F78462F05DD29
:101870001F78582F02D01F78782F0CD102B12EE09C
:101880001F78612F03DB1F78203F0F7001E01F7866
:101890000F70491C1FE01F78222F04D102B11EE0F7
:1018A0000126012417E01F78202F14D01F782C2F39
:1018B00011D0FF2613E01F78222F00D1002402B19F
:1018C0000DE044B11F785C2F02D15B1C471CF8B2BD
:1018D0001F780F70491C471CF8B25B1CA8E700BFBB
:1018E00000270F702E70F0BD10B504460020107058
:1018F0000BE020780870641C491C1078401C1070A4
:101900001078984201DB012010BD2078202802D0F9
:1019100020780028EDD10020087000BFF4E7000017
:101920002DE9FF4F85B080468946002700200490AE
:101930000390012002904FF0000B002544461DE06B
:101940002078202816D005F07F00052812DA0DB97E
:1019500045F0800505F07F00042803D120782A286F
:1019600000D00EE0207805F07F010DF80100681C22
:10197000C5B202E0852D00D103E0641C2078002868
:10198000DED100BF8DB1002005F07F010DF8010010
:1019900051A1684600F062FA18B900210898017058
:1019A00002E001210898017000254FF0000A44462A
:1019B00014E0641C0AF1010000F0FF0A20782028DE
:1019C00002D020782A2809D1204600F0D7F906460F
:1019D000282E03D02A2E01D0CDF810A02078282858
:1019E00002D020780028E4D14446049810B104982D
:1019F000401C04444FF0000A002654E0207810B93F
:101A00004FF0010A50E02078282803D116B9781C3D
:101A1000C7B213E02078292808D13EB917B1781E43
:101A2000C7B201E04FF0010A47B93DE02078222813
:101A300004D10EB9012000E00020064647B9207805
:101A400020282FD0207889F8000009F1010929E029
:101A500020782C2804D101200290681CC5B214E023
:101A60002078202811D0207828280ED04DB9BBF13D
:101A7000050F06DA20780DF80B000BF1010000F0DD
:101A8000FF0B0298401CC0B20290012F0AD10298AD
:101A9000022807D10298401CC0B202900398401C53
:101AA000C0B20390641CA9E700BF0398012809D1C4
:101AB00000200DF80B0008A1684600F0CFF908B926
:101AC00000200390079903980870002089F800000F
:101AD000504609B0BDE8F08F766F696400000000E1
:101AE0002DE9F043B5B005460F460024002604E07A
:101AF00000213D488155701CC6B20A2EF8DB06E075
:101B00006D1C287818B9012035B0BDE8F08328781D
:101B10002828F5D16D1C61E034AA69462846FFF7F4
:101B20007FFE064635449DF8D00020B1012827D01D
:101B3000FF284CD149E09DF8000000B333A9684666
:101B400000F027F906460EB10220DDE7204600F03E
:101B50004DF825490A31339A0A50A1F12400008B2F
:101B60000121A140884320491A39088304211E48D5
:101B70000155601CC4B20A2C01DD0320C4E726E035
:101B8000684600F087F9401C00F0FF08204600F08E
:101B90002DF815490A3100EB01094946684600F065
:101BA0006EF911481A38018B0120A040014388B218
:101BB0000D491A3908830C4800F80480601CC4B22F
:101BC0000A2C01DD03209FE701E002209CE700BF13
:101BD0002878292801D0287800B900E09CE700BFC8
:101BE0003C70002090E70000920000200246002098
:101BF000002105E0044B5B5C0344D8B24B1CD9B216
:101C00009142F7DB704700009200002010B50121DF
:101C10000D48FFF7A0F9012808D10C48D0F8F000D2
:101C20004FF6FF7108440949C1F8F0000648FFF774
:101C30008FF90649D1F8F01008440449C1F8F000C2
:101C40000846D0F8F00010BD0008004078000020E1
:101C500010B5044604EBC40000EB04100122C2EBF3
:101C6000800081B24FF47A70FFF7EEF9012001494C
:101C7000C87510BD7800002010B50246012000E0B4
:101C800050430B00A1F10104E1B2F9D110BD0000F5
:101C900010B501210848FFF749F94FF6FF710648D2
:101CA000FFF77CF900210448FFF77AF90020034987
:101CB000C1F8F00010BD00000008004078000020CE
:101CC00070B51D48008800F40040002833D01A4841
:101CD00005780020194948551948816817488847F0
:101CE00004461CB91649C868804721E0134800F033
:101CF000DDF80546012D00D02C46CCB1012C06D0D4
:101D0000022C08D0032C0AD0042C10D10BE00DA01B
:101D1000FEF7AEFA0BE00EA0FEF7AAFA07E00FA05E
:101D2000FEF7A6FA03E010A0FEF7A2FA00BF00BF7C
:101D300000200149088070BD300000206C010020A7
:101D400078000020BAAFCAFDB4EDCEF3210D0A0031
:101D5000B2CECAFDB4EDCEF3210D0A00B2CECAFD5B
:101D6000CCABB6E0210D0A00CEB4D5D2B5BDC6A528
:101D7000C5E4B5C4BAAFCAFD210D0A000146491C2D
:101D800000E0491C0878202801D10029F9D1087801
:101D900070472DE9F04307460E4600254FF00A082C
:101DA0003C46002030601FE02078392802DC207893
:101DB00030280ADA2078462802DC2078412804DA24
:101DC0002078582809D1012D07D12078412801DB3E
:101DD0004FF01008681CC5B205E0207800B904E097
:101DE0000120BDE8F083641CDEE700BF3C46B8F18B
:101DF000100F0FD1032D01DA0220F2E720783028EE
:101E000006D16078582803D1A41CA81EC5B204E0EE
:101E10000320E6E70DB90420E3E71BE00DB1681EDF
:101E2000C5B22078392806DC2078302803DB2078FA
:101E3000A0F1300902E02078A0F137092946404698
:101E4000FFF71AFF316809FB00103060641C20782E
:101E500000B900E0E2E700BF0020C2E702460AE066
:101E600010780B78984201D001207047107800B9A3
:101E700002E0521C491CF3E700BF0020F5E706E032
:101E800002780A70027802B902E0401C491CF7E7A8
:101E900000BF70470146002005E00A7802B903E060
:101EA000421CD0B2491CF8E700BF704710B58CB097
:101EB00004461E230BAA03A92046FFF715FD009038
:101EC000009810B101200CB010BD9DF82C00044406
:101ED00000200B900EE040489DF82C2050F8221076
:101EE00003A8FFF7BBFF00B908E09DF82C00401CD9
:101EF000C0B20B909DF82C000728ECD300BF9DF8D2
:101F00002C00072863D2DFE800F004053C5E65641E
:101F1000630000BF31A0FEF7ABF931A0FEF7A8F9CE
:101F20003FA0FEF7A5F94EA0FEF7A2F95CA0FEF7D0
:101F30009FF96BA0FEF79CF979A0FEF799F986A0AE
:101F4000FEF796F98BA0FEF793F990A0FEF790F9B3
:101F500094A0FEF78DF999A0FEF78AF99EA0FEF7EE
:101F600087F9A4A0FEF784F9B0A0FEF781F9BDA01F
:101F7000FEF77EF9C8A0FEF77BF9D4A0FEF778F94A
:101F80009AE216A0FEF774F9E0A0FEF771F90020BE
:101F90000B900EE0ED4800689DF82C2000EBC2008D
:101FA0004168EBA0FEF764F99DF82C00401CC0B21C
:101FB0000B90E648007D9DF82C108842EADC07A0D3
:101FC000FEF756F978E205A0FEF752F9C4E171E296
:101FD00045E219E2ECE10000340000200D0A0000A7
:101FE0002D2D2D2D2D2D2D2D2D2D2D2D2D2D2D2D21
:101FF0002D2D2D2D2D2D2D2D55534D415254205627
:10200000332E312D2D2D2D2D2D2D2D2D2D2D2D2DF5
:102010002D2D2D2D2D2D2D2D2D2D2D200D0A00009A
:102020002020202055534D415254CAC7D3C9414C9A
:1020300049454E54454BBFAAB7A2B5C4D2BBB8F66A
:10204000C1E9C7C9B5C4B4AEBFDAB5F7CAD4BBA538
:10205000BDBBD7E9BCFE2CCDA8B9FD200D0A000000
:10206000CBFC2CC4E3BFC9D2D4CDA8B9FDB4AEBF5C
:10207000DAD6FACAD6B5F7D3C3B3CCD0F2C0EFC321
:10208000E6B5C4C8CEBACEBAAFCAFD2CB2A2D6B499
:10209000D0D02ED2F2B4CB2CC4E3BFC90D0A0000BD
:1020A000D2D4CBE6D2E2B8FCB8C4BAAFCAFDB5C44C
:1020B000CAE4C8EBB2CECAFD28D6A7B3D6CAFDD7AC
:1020C000D62831302F3136BDF8D6C629A1A2D7D6B1
:1020D000B7FBB4AEA1A2BAAFCAFDC8EB0D0A0000AF
:1020E000BFDAB5D8D6B7B5C8D7F7CEAAB2CECAFD33
:1020F000292CB5A5B8F6BAAFCAFDD7EEB6E0D6A77B
:10210000B3D63130B8F6CAE4C8EBB2CECAFD2CB2B1
:10211000A2D6A7B3D6BAAFCAFDB7B5200D0A000044
:10212000BBD8D6B5CFD4CABE2ED0C2D4F6B2CECA92
:10213000FDCFD4CABEBDF8D6C6C9E8D6C3B9A6C4B9
:10214000DC2CD0C2D4F6BDF8D6C6D7AABBBBB9A684
:10215000C4DC2E0D0A000000BCBCCAF5D6A7B3D65D
:102160003A7777772E6F70656E6564762E636F6D44
:102170000D0A000055534D415254D3D037B8F6CF15
:10218000B5CDB3C3FCC1EE3A0D0A00003F3A2020A2
:1021900020202020BBF1C8A1B0EFD6FAD0C5CFA235
:1021A0000D0A000068656C703A202020BBF1C8A1C0
:1021B000B0EFD6FAD0C5CFA20D0A00006C697374D7
:1021C0003A202020BFC9D3C3B5C4BAAFCAFDC1D01D
:1021D000B1ED0D0A0A00000069643A202020202099
:1021E000BFC9D3C3BAAFCAFDB5C44944C1D0B1ED6C
:1021F0000D0A0A006865783A20202020B2CECAFD78
:102200003136BDF8D6C6CFD4CABE2CBAF3B8FABFA1
:10221000D5B8F12BCAFDD7D6BCB4D6B4D0D0BDF852
:10222000D6C6D7AABBBB0D0A0A0000006465633A94
:1022300020202020B2CECAFD3130BDF8D6C6CFD482
:10224000CABE2CBAF3B8FABFD5B8F12BCAFDD7D69F
:10225000BCB4D6B4D0D0BDF8D6C6D7AABBBB0D0A85
:102260000A00000072756E74696D653A312CBFAA60
:10227000C6F4BAAFCAFDD4CBD0D0BCC6CAB13B30CD
:102280002CB9D8B1D5BAAFCAFDD4CBD0D0BCC6CA50
:10229000B13B0D0A0A000000C7EBB0B4D5D5B3CCF2
:1022A000D0F2B1E0D0B4B8F1CABDCAE4C8EBBAAF5D
:1022B000CAFDC3FBBCB0B2CECAFDB2A2D2D4BBD859
:1022C000B3B5BCFCBDE1CAF82E0D0A002D2D2D2D95
:1022D0002D2D2D2D2D2D2D2D2D2D2D2D2D2D2D2D2E
:1022E0002D2D2D2D2D2D414C49454E54454B2D2D39
:1022F0002D2D2D2D2D2D2D2D2D2D2D2D2D2D2D2D0E
:102300002D2D2D2D2D2D2D200D0A00002D2D2D2DA7
:102310002D2D2D2D2D2D2D2D2D2D2D2D2D2D2D2DED
:102320002D2D2D2D2DBAAFCAFDC7E5B5A52D2D2D0F
:102330002D2D2D2D2D2D2D2D2D2D2D2D2D2D2D2DCD
:102340002D2D2D2D2D2D2D2D200D0A007800002056
:1023500025730D0A0000000059A0FDF789FF002039
:102360000B901AE0664909689DF82C2001EBC20128
:1023700001AB02AA486803A9FFF7D2FA60480068D7
:102380009DF82C1050F8312003A95EA0FDF770FFD6
:102390009DF82C00401CC0B20B905948007D9DF860
:1023A0002C108842DEDCAFF2CC30FDF761FF83E019
:1023B000AFF2D830FDF75CFF0BAA03A92046FFF768
:1023C0002FFA9DF82C00C8B9694603A8FFF7E1FC75
:1023D0000B909DF82C0020B94FA00099FDF748FF05
:1023E0000EE09DF82C00042801D002206BE54DA0E2
:1023F000FDF73EFF01204249C87501E0022062E579
:1024000047A0FDF735FF57E045A0FDF731FF0BAAC8
:1024100003A92046FFF704FA9DF82C00C8B96946C5
:1024200003A8FFF7B6FC0B909DF82C0020B942A042
:102430000099FDF71DFF0EE09DF82C00042801D047
:10244000022040E53FA0FDF713FF00202C49C8758E
:1024500001E0022037E532A0FDF70AFF2CE030A0B2
:10246000FDF706FF0BAA03A92046FFF7D9F99DF84F
:102470002C00C8B9694603A8FFF78BFC0B909DF8A8
:102480002C0078B91E49009881F8EC00084690F8B5
:10249000EC0018B130A0FDF7EBFE07E035A0FDF72A
:1024A000E7FE03E002200EE502200CE51CA0FDF78C
:1024B000DFFE01E0012006E500BF002003E500008B
:1024C0002D2D2D2D2D2D2D2D2D2D2D2D2D2D2D2D3C
:1024D0002D2D2D2D2D2D2D2D2DBAAFCAFD2049448A
:1024E000202D2D2D2D2D2D2D2D2D2D2D2D2D2D2D29
:1024F0002D2D2D2D2D2D2D2D2D2D2D2D200D0A0089
:102500007800002025732069642069733A0D0A3031
:1025100058253038580D0A004845583A3058255843
:102520000D0A00003136BDF8D6C6B2CECAFDCFD4F2
:10253000CABE210D0A0000004445433A256C750DC2
:102540000A0000003130BDF8D6C6B2CECAFDCFD4E5
:10255000CABE210D0A00000052756E2054696D65D7
:102560002043616C63756C6174696F6E204F4E0D12
:102570000A00000052756E2054696D652043616C3D
:1025800063756C6174696F6E204F46460D0A0000DA
:1025900001607047000303060104060205000305FD
:1025A0001F1C1F1E1F1E1F1F1E1F1E1F30313233F8
:1025B0003435363738394142434445464030580077
:1025C00030313233343536373839616263646566A9
:1025D0004030780004000008000000000000000205
:1025E00000010000100000003F000000646563006F
:1025F0006964000072756E74696D650068656C7061
:10260000000000006C6973740000000068657800C9
:102610007538205254435F536574287531362073E2
:10262000796561722C753820736D6F6E2C7538204A
:10263000736461792C753820686F75722C75382039
:102640006D696E2C7538207365632900766F696437
:102650002077726974655F61646472287533322013
:10266000616464722C7533322076616C290000003D
:1026700075333220726561645F61646472287533FA
:102680003220616464722900766F69642064656C2D
:1026900061795F6D7328753136206E6D7329000086
:1026A000766F69642064656C61795F757328753332
:1026B00032206E7573290000D82600080000002023
:1026C0006C0100006C010008402700086C0100202C
:1026D00034070000C80100081184A24A04680901F7
:1026E000020304060708090C6910C5020406081352
:1026F000E8251B08FC041304261B08F0081A0C0824
:102700001AEC081AF40413F5131B0870101A910C34
:102710001A4C081A25101A88081A71081AA00813EA
:10272000850C1B08100822501420511C14089D14FD
:1027300014084D151B08C10C1A057701DC000000B8
:0400000508000131BD
:00000001FF
