:020000040800F2
:10000000E0DF00202D02000819590008730E0008D7
:10001000A158000851090008F3BA000800000000C8
:10002000000000000000000000000000D5B500083E
:10003000B10B000800000000C3070008E9B6000883
:1000400047020008470200084702000821B30008E1
:10005000470200084702000847020008470200085C
:10006000470200084702000847020008470200084C
:10007000470200084702000847020008470200083C
:10008000470200084702000847020008470200082C
:10009000470200084702000847020008470200081C
:1000A000470200084702000847020008470200080C
:1000B00065B7000847020008470200084702000829
:1000C00047020008470200084702000847020008EC
:1000D00047020008C9B800084702000847020008A4
:1000E00047020008470200084702000847020008CC
:1000F00047020008470200084702000847020008BC
:1001000047020008470200084702000847020008AB
:10011000470200084702000847020008470200089B
:10012000470200084702000847020008470200088B
:1001300000F002F800F06BF80AA090E8000C82448E
:100140008344AAF10107DA4501D100F060F8AFF26B
:10015000090EBAE80F0013F0010F18BFFB1A43F0A5
:100160000103184790F90000B0F900000A444FF06D
:10017000000C10F8013B13F0070408BF10F8014B06
:100180001D1108BF10F8015B641E05D010F8016B4B
:10019000641E01F8016BF9D113F0080F1EBF10F8AF
:1001A000014BAD1C0C1B09D16D1E58BF01F801CBD2
:1001B000FAD505E014F8016B01F8016B6D1EF9D555
:1001C0009142D6D37047000000230024002500266A
:1001D000103A28BF78C1FBD8520728BF30C148BFAA
:1001E0000B607047642900F0CD80752900F0CA804B
:1001F000782900F00381632900F07582732900F0EB
:100200007A82002070471FB51FBD10B510BD00F0E9
:100210008DFA1146FFF7F7FF0BF026FE00F0ABFA60
:1002200003B4FFF7F2FF03BC0BF06CFC09488047F6
:1002300009480047FEE7FEE7FEE7FEE7FEE7FEE7C8
:10024000FEE7FEE7FEE7FEE704480549054A064BE0
:100250007047000005B7000831010008E0D9002010
:10026000E0DF0020E0DB0020E0DB002072B670471A
:1002700062B67047EFF3108072B6704780F3108853
:10028000704730BF704720BF7047B0FA80F07047AA
:1002900090FAA0F0B0FA80F0704790FAA0F07047A2
:1002A000704700000FB4044910B503AA029800F08B
:1002B00027FA10BC5DF814FB600000200FB41CB5D9
:1002C000074B06AA7B4469460090059800F0E9F9BF
:1002D0000020694600F0F8F91CBC5DF814FB000032
:1002E0000104000070B5044685690068C10601D5A7
:1002F000302600E02026C00707D070BDD4E90121D8
:1003000030469047206A401C20626D1EF6D570BDB5
:1003100070B5044685690078C00707D170BDD4E97F
:10032000012120209047206A401C20626D1EF6D5D6
:1003300070BD70B50C460546012A05D028788006A8
:1003400000D5EA69002302E0012305E05B1C93422B
:1003500002D2E05C0028F9D1A869E618C01AA861A9
:10036000286A184428622846FFF7BCFF04E0D5E954
:10037000012114F8010B9047B442F8D32846FFF747
:10038000C7FF70BD2DE9F0410646002410687529AD
:10039000314616A510D0AFF30080002802DA4042A3
:1003A00013A507E031688A0701D512A502E04907C5
:1003B00004D511A5012401E0AFF3008000210A2239
:1003C00006F1240709E0B0FBF2FCB0FBF2F302FBFC
:1003D0001C00303078541846491C0028F3D12346BD
:1003E0002A463046BDE8F04100F0FCB800000000AD
:1003F0002D0000002B0000002000000070B5044616
:100400000D4621461068AFF300802188090502D50A
:100410000F4A7A4402E00E4A7A440E32002104F177
:10042000240305E000F00F060009965D5E54491CA8
:100430000028F7D120780023000704D5702D02D0C2
:1004400009B1022311322046BDE8704000F0CAB85D
:1004500016F400002DE9F05F894604464FF0000ACB
:10046000DFF874B1FB44C0F820A02046E16888475B
:10047000002874D0252806D0D4E901219047206AAD
:10048000401C2062F1E700265F462046E16888476D
:100490002028054607DB312D05D2781910F8200CED
:1004A00008B10643F1E7B00701D526F00406C4F809
:1004B0001CA00027C4F818A02A2D09D028460BF04C
:1004C0001AFB38B304EB8708303DC8F8185019E020
:1004D00059F8041B204604EB87029161E1688847C4
:1004E000012F054618D1E069002820DA26F0200601
:1004F0001DE0D8F8180000EB800005EB4000303814
:10050000C8F818002046E168884705460BF0F3FA62
:100510000028EED1012F0AD02E2D08D12046E16807
:1005200088477F1C0546022F46F02006C4DBA069E1
:10053000002803DA404246F00106A061F00701D02E
:1005400026F010066C2D0BD0682D09D04C2D39D01B
:100550006A2D35D0742D35D07A2D33D016E038E0A1
:10056000E1682F4620468847B842054609D16C2FDE
:1005700026D04FF48060E168064320468847054650
:1005800004E06C2F1AD04FF4807006430DB3A5F130
:100590004100192802D8203546F400664A4629460B
:1005A000204626604E46FFF71DFE80B101280BD085
:1005B000F61D26F0070000F1080956E74020E4E7A1
:1005C0008020D8E70020D6E706F104094DE7284649
:1005D00052E7206ABDE8F09FECF3000070477047D7
:1005E000704770472DE9F0470D46994692460446FC
:1005F00000F124080168880604D5E06921F01001A3
:10060000216000E00120A84201DD471B00E0002737
:10061000A1697A1902EB0900081AA0612078C006C6
:1006200002D42046FFF75EFE002608E0D4E901214F
:100630001AF806009047206A401C761C20624E453E
:10064000F4DB2078C0060AD52046FFF74BFE06E013
:10065000D4E9012130209047206A401C2062381ED6
:10066000A7F10107F4DC07E0D4E9012118F805003F
:100670009047206A401C2062281EA5F10105F3DC8A
:100680002046FFF745FE2078000602D50220BDE88F
:10069000F0870120FBE7000001694A1C026108782D
:1006A000704700B58FB0CDE90131002105910549B2
:1006B0007944CDE9031011466846FFF7CBFE0FB031
:1006C00000BD0000E5FFFFFF0A6802F8010B0A60A9
:1006D000704710B5436913B1AFF3008001E0FFF735
:1006E00028FE012010BD127800F124010A700022BA
:1006F0004A700122EDE711684FF0FF32E9E7000090
:10070000074B70B50D467B44FFF7CBFF04462846E8
:1007100000F008F810B14FF0FF3070BD204670BDFA
:100720001FB70000007B00F080007047754600F0A6
:1007300029F8AE4605006946534620F00700854675
:1007400018B020B5FFF780FDBDE820404FF000064F
:100750004FF000074FF000084FF0000B21F00701A9
:10076000AC46ACE8C009ACE8C009ACE8C009ACE8EC
:10077000C0098D4670470446AFF300802046FFF75E
:100780004FFD00000048704780D900201D484FF6FB
:10079000FF710170002080F309881B48016881F314
:1007A00008881A484FF08051016062B6FEE717488A
:1007B0004FF080510160704714484FF08051016044
:1007C000704772B6EFF3098028B1203880E8F00F47
:1007D0000F490968086000B50E4880475DF804EBD2
:1007E0000D480E490A78027009480D490A680260EE
:1007F000106890E8F00F203080F309884EF0040E66
:1008000062B6704722ED00E06C01002004ED00E0CC
:100810006401002059770008F2000020F300002056
:10082000680100207047000010B5002400BF00BF21
:10083000FFF720FD044600BF00F026F900BF0F4877
:100840000F4908600F4810490860104810490860B7
:1008500010481149086011481149086011481249AF
:10086000086012481249086000BF00F027F900BF75
:100870002046FFF703FD00BF00BF10BDB70800080A
:100880009C000020B9080008A0000020BB08000858
:10089000A400002025080008A8000020B5080008D2
:1008A000AC000020BD080008B0000020BF08000810
:1008B000B40000207047704770477047704770471A
:1008C00008B5012108200AF071FB4FF48070ADF8E3
:1008D000000010208DF8030003208DF80200694607
:1008E000044800F02EFA4FF48071024800F0BDFA7F
:1008F00008BD0000000C014010B501200AF066FBA5
:1009000000200AF063FB10BD08B5014600200090EE
:10091000034800900098084400900098008808BDA3
:10092000006C004008B500220092044A0092009A30
:1009300002440092009A116008BD0000006C004063
:1009400000B585B068460AF047FB019805B000BDC8
:1009500000BFFEE710B500F0FBF800F003F800F070
:10096000F3F810BD70B5002600201849088018491A
:100970000880184908601849086018490860184933
:10098000086018490860002400BFFFF773FC0646A2
:1009900000BF00250BE000201049086000F074F84B
:1009A00000F08CF80D4800680444681C85B2002DE6
:1009B000F1D00C480460002008490860084908602C
:1009C00000BF3046FFF75AFC00BF70BD800000201A
:1009D0008200002084000020880000209000002079
:1009E000940000208C00002001460846044A12684A
:1009F000904203D9024A1268801A00E00020704732
:100A00008C00002070B5002500BFFFF733FC0546C1
:100A100000BF0648046800BF2846FFF72FFC00BF50
:100A20002046FFF7E1FF0646304670BD90000020EB
:100A300070B50025FFF7E6FF044600BFFFF71AFC7C
:100A4000054600BF00200449086000BF2846FFF7A4
:100A500015FC00BF204670BD9000002070B5002539
:100A600000BFFFF707FC054600BF0648046800BF4B
:100A70002846FFF703FC00BF2046FFF7B5FF0646F8
:100A8000304670BD9400002010B509480088401C15
:100A9000074908800748008818B900F083F806491C
:100AA000086004480088401C0249088010BD00000E
:100AB00080000020820000208400002010B50F4834
:100AC0000088401E0D49088008460088A0B900F043
:100AD00069F80B490860084600680A490968441A21
:100AE00009480068A04201D207480460074800682E
:100AF000A04201D20548046010BD00008200002021
:100B00008800002084000020900000209400002035
:100B100010B5002400BF00BFFFF7ACFB044600BFC8
:100B2000FFF7B2FF00BF1021064804F0BBFE00BF74
:100B3000FFF7C4FF00BF2046FFF7A0FB00BF00BFC8
:100B400010BD00006015002010B5FFF7E1FF10BDDB
:100B500010B500200249086000F00AF810BD00003E
:100B60007C00002001490860704700007C000020E4
:100B700010B5FFF7E5FE04460848006840F08070B5
:100B8000064908600020064948600846006840F0B1
:100B9000010008602046FFF7E5FF10BDFCED00E016
:100BA000001000E00149486870470000001000E0B4
:100BB000704700004D48406940F480704B494861DF
:100BC0000846806940F0200088610846806940F04E
:100BD000400088610846806940F0800088610846CE
:100BE000806940F480708861414800680020404975
:100BF00008600846006840F0BB300860081F0068C5
:100C000000F0FF20091F08600846006840F0BB1094
:100C100008603848006800203649086008460068C7
:100C200040F0BB300860081F006833490840314974
:100C3000091F086008460068304908432D49091F0C
:100C400008602F48006880B22D4908600846006897
:100C50002C4908432A490860081F006800F07F40BB
:100C6000091F086008460068274908432449091FEE
:100C700008602648406820F47060244948600846AF
:100C8000406840F4306048600846006800F07F40EB
:100C90000860084600681C4908431C490860002099
:100CA0004FF020410861486119490860C806006991
:100CB00040F48050C90608610846006940F0100001
:100CC00008610846406940F4407048610846406940
:100CD00048610846406948616FF07040C1F81401EE
:100CE0000846006940F001000861704700100240AA
:100CF000041401400418014000FFFF0FBB0000B0C6
:100D0000041C01400000BBBBBBBBBB00002001407A
:100D1000140100A006E04FF0D0435B5C00F8013BFB
:100D2000491C521E002AF6D1704710B506E004781F
:100D30004FF0D0435C54491C401C521E002AF6D18F
:100D400010BD2DE9F04102460025002600200023B9
:100D50000024002791F803C00CF00F0591F803C0A0
:100D60000CF0100CBCF1000F03D091F802C04CEA5B
:100D7000050591F800C0BCF1000F31D014680020C7
:100D80002BE04FF0010C0CFA00F3B1F800C00CEAB4
:100D900003069E4220D183004FF00F0C0CFA03F79C
:100DA000BC4305FA03FC4CEA040491F803C0BCF10F
:100DB000280F06D14FF0010C0CFA00FCC2F814C049
:100DC0000AE091F803C0BCF1480F05D14FF0010CC7
:100DD0000CFA00FCC2F810C0401C0828D1D31460E3
:100DE000B1F800C0BCF1FF0F34DD546800202EE0E4
:100DF00000F1080C4FF0010808FA0CF3B1F800C03C
:100E00000CEA03069E4221D183004FF00F0C0CFA2E
:100E100003F7BC4305FA03FC4CEA040491F803C051
:100E2000BCF1280F05D100F1080C08FA0CF8C2F843
:100E3000148091F803C0BCF1480F07D100F1080CF1
:100E40004FF0010808FA0CF8C2F81080401C08287E
:100E5000CED35460BDE8F0810246002093680B4079
:100E60000BB1012000E00020704741617047016133
:100E7000704700BFFEE70146CA1701EB927292105D
:100E8000A1EB820292B9642091FBF0F200FB1210F8
:100E900050B94FF4C87091FBF0F200FB121008B982
:100EA000012070470020FCE70120FAE70020F8E766
:100EB00008B5012144200AF079F81C20ADF80000A3
:100EC00048208DF8030069460648FFF73AFF0120E5
:100ED000ADF8000028208DF8030069460248FFF7AE
:100EE00030FF08BD001801400008014010B504465D
:100EF00014B101202C4908702B480078002837D005
:100F000010212A48FFF7A8FF78B108212748FFF7EA
:100F1000A3FF50B104212548FFF79EFF28B101210E
:100F20002348FFF799FF012822D10A200AF0C4FEC6
:100F300000201D49087010211C48FFF78DFF08B9DB
:100F4000012010BD08211948FFF786FF08B90220CB
:100F5000F7E704211548FFF77FFF08B90320F0E702
:100F600001211348FFF778FF01281BD10420E8E78F
:100F700010210E48FFF770FF012813D108210B48FC
:100F8000FFF76AFF01280DD104210848FFF764FF2D
:100F9000012807D101210648FFF75EFF10B90120A3
:100FA000014908700020CCE75400002000180140DF
:100FB000000801401FB57AE002A8002103AB0A46F1
:100FC000CDE900103A4805F0E1FA044620780128FE
:100FD00041D0022827D003281ED0042866D102ABB6
:100FE00000220121334805F097F805460020102122
:100FF00001232A46CDE900104FF4A071C82004F067
:101000009CFB29462CA0FFF74DF933480068C043EC
:101010003249C1F8940149E031480068C043314980
:10102000C1F8A00142E000BF02AB0022022121482A
:1010300005F072F805460020102101232A46CDE96B
:1010400000104FF4AA71C82004F077FB29461AA0BB
:10105000FFF728F92AE02448007808B9012000E0C9
:101060000020214908700846007870B102A91F4885
:1010700006F046FE1EA010210B466422CDE90010AA
:10108000A021B02004F026FB0FE002AB00221146A5
:10109000164806F08FFE19A010210B466422CDE9F8
:1010A0000010A021B02004F015FB00BF00BF83E7B3
:1010B000F813002058140020CAC2BCFEB1EAD6BE04
:1010C000D7E94576656E74466C616773B5C4D6B56D
:1010D0003A25640D0A0000009401234200002342D7
:1010E000A08121420080214200000020C413002082
:1010F000544D52312053544152542100544D5231D9
:101100002053544F5021200030B5014601F01F04F8
:10111000C1F34513CA0AE50205EB43151544A8B20D
:1011200030BD000070B50446002617480588408889
:1011300045431548808846F60401884216D1124876
:101140008079012812D100200F4988712A20488116
:101150002B2088810021084604F00AF901200A4961
:1011600088712B2048812A20888103E000210846CD
:1011700004F0FEF804F058FB002602E00348048067
:10118000761CAE42FAD370BD801400200008006CBB
:1011900010B50446002C66D16C498871F020088097
:1011A0004FF4A07048800846808849F24131884257
:1011B0000BD06648808846F60401884205D0634813
:1011C000808845F2103188421AD12C205F4908816D
:1011D0002A2048812B2088810846808846F6040111
:1011E000884205D05948808845F21031884206D19E
:1011F0004FF4A070554908804FF4F0704880A1E08A
:101200005248808845F21051884210D14FF4305036
:101210004E4908814FF4285048814FF42C50888162
:101220004FF4F07008804FF4487048808AE04748D7
:10123000808841F6631188420DD12C2043490881F2
:101240002B2048812A2088814FF4F07008804FF4C9
:101250004870488076E022203C490881202048815F
:10126000212088816EE00120384988714FF4A070F8
:101270000880F02048800846808849F24131884241
:1012800005D03248808845F21031884207D12C20A1
:101290002E4908812A2048812B2088813FE02B4855
:1012A000808846F60401884207D12C20274908810E
:1012B0002B2048812A20888131E02448808845F20B
:1012C0001051884210D14FF43050204908814FF41A
:1012D000285048814FF42C5088814FF44870088082
:1012E0004FF4F07048801AE01848808841F6631186
:1012F00088420DD12C20154908812A2048812B20B5
:1013000088814FF4487008804FF4F070488006E000
:1013100022200E49088121204881202088810B4805
:10132000808846F60401884205D00848808845F246
:101330001031884206D14FF4F070044908804FF410
:10134000A0704880002003F09DFE10BD8014002096
:101350002DE9FF4F84B081468A4600200390029019
:101360000698A0EB09050798A0EB0A06CDF80490B3
:10137000CDF800A0002D01DD012705E00DB9002703
:1013800002E04FF0FF376D42002E02DD4FF0010802
:1013900006E016B94FF0000802E04FF0FF38764241
:1013A000B54201DD2C4600E034464FF0000B21E051
:1013B000009A91B2019A90B200F022F80398284462
:1013C00003900298304402900398A04205DD0398F0
:1013D000001B03900198384401900298A04205DD5B
:1013E0000298001B02900098404400900BF101000D
:1013F0001FFA80FB601C8345DADD08B0BDE8F08F82
:1014000030B504460D462946204603F0B1FF04F0EE
:101410000BFA024800880249088030BD56000020BF
:101420000008006CF0B504460D4616461F462B46D4
:10143000324629462046FFF78BFF3B462246294687
:101440002046FFF785FF3B46324639462046FFF7E8
:101450007FFF3B46324629463046FFF779FFF0BD15
:1014600070B504460D4616465A48808849F2413107
:10147000884205D05748808845F21031884214D1FF
:101480005449488904F0C4F9201204F0B5F9E0B2D7
:1014900004F0B2F94F49888904F0BAF9281204F02F
:1014A000ABF9E8B204F0A8F98CE04A48808845F22C
:1014B0001051884220D14749488904F0A9F92012E7
:1014C00004F09AF943494989491C88B204F0A0F90B
:1014D000E0B204F091F93F49888904F099F92812A3
:1014E00004F08AF93B498989491C88B204F090F9D3
:1014F000E8B204F081F965E03648808841F663116E
:10150000884228D13348807920B932480088401E6B
:10151000001B84B22F49488904F07AF9201204F0A4
:101520006BF9E0B204F068F9201204F065F9E0B25A
:1015300004F062F92749888904F06AF9281204F056
:101540005BF9E8B204F058F9281204F055F9E8B252
:1015500004F052F936E01F48808846F604018842BC
:101560001DD11C488079012804D11A480088401EEA
:10157000001B84B21749488904F04AF9201204F08C
:101580003BF9E0B204F038F91249888904F040F9D7
:10159000281204F031F9E8B204F02EF912E00D48F7
:1015A0008079012804D10B480088401E001B84B2BA
:1015B00008494889214604F041F9064988892946A5
:1015C00004F03CF90348008903490880881C068020
:1015D00070BD000080140020FE07006C2DE9FC4F58
:1015E00005460E4617469846DDF82C9000200190DF
:1015F0002748808846F60401884229D1244880790A
:10160000012825D1AB46354621480088C01B401E25
:1016100086B247461E480088A0EB0B00401E1FFA0A
:1016200080F800201A4988712A2048812B2088815F
:1016300043463A4631462846CDF80090FFF7CEFFA4
:101640000120134988712B2048812A2088811CE0C1
:10165000781B401C80B20190344614E02146284695
:1016600003F086FE04F0E0F84FF0000A06E00948B7
:10167000A0F800900AF101001FFA80FA0198824553
:10168000F5DB601C84B24445E8DDBDE8FC8F00005A
:10169000801400200008006C10B5FD48406940F43B
:1016A0008070FB4948610846806940F00800886105
:1016B0000846806940F0200088610846806940F053
:1016C000400088610846806940F480708861F14874
:1016D000006820F00F00EF4908600846006840F0FD
:1016E00003000860EC480068EC490840EA490860DB
:1016F00008460068EA490843E7490860081F00688F
:1017000000F0FF20091F08600846006840F0BB1089
:101710000860E44800680020E24908600846006864
:1017200040F0BB300860081F006820F07040091FBF
:1017300008600846006840F030400860DA484068B9
:1017400020F47020D84948600846406840F43020B2
:1017500048600846006820F00F00086008460068EE
:1017600040F00B00086000204FF020418861C86104
:10177000CE4908604FF02040806940F480504FF01F
:10178000204188610846806940F4804088610846AD
:10179000806940F0100088610846C069C861084649
:1017A000C06940F00100C8610846C06940F470603B
:1017B000C861BE480068C1F81C01BC480068C1F897
:1017C0001C010846D0F81C0140F44070C1F81C010F
:1017D0000846806940F00100886132200AF06CFA06
:1017E000002003F019FCB249888008468088FF2851
:1017F0000ADB084680884FF6FF71884204D0AC4867
:101800008088B0F5134F7CD1D32004F001F803F0A9
:1018100035FBA749888003F031FBA549888003F098
:101820002DFBA3498880084680884FF6FF7101EAA6
:1018300000209F49888003F021FB9D498988084347
:101840009B4988800846808849F24131884258D0B7
:10185000BF2003F0DDFF03F011FB9549888003F002
:101860000DFB9349888003F009FB9149888003F0C0
:1018700005FB8F498880084680884FF6FF7101EA92
:1018800000208B49888003F0F9FA89498988084348
:10189000874988800846808846F6040188427AD0C5
:1018A000D42003F0B5FF03F0E9FA8149888003F002
:1018B000E5FA7F49888003F0E1FA7D49888008468F
:1018C00080884FF6FF7101EA00207949888003F093
:1018D000D5FA774989880843754988800846808801
:1018E00045F21031884256D04FF45A4003F090FF31
:1018F00003F0C4FA6E4988804FF45B4003F088FF20
:1019000000E048E003F0BAFA694988800846808818
:101910004FF6FF7101EA0020654988804FF45C4072
:1019200003F076FF03F0AAFA614989880843604909
:10193000888008468088B0F5004F02D145F21050EB
:1019400088805B48808845F21051884223D0A120CE
:1019500003F05EFF03F092FA5549888003F08EFA97
:1019600053498880084680884FF6FF7101EA0020BD
:101970004F49888003F082FA4D49898808434C49D1
:1019800088800846808845F26171884203D141F61B
:101990006310474988804648818846A0FEF782FC4C
:1019A0004348808849F24131884270D1CF2003F00A
:1019B0002FFF002003F020FFC12003F01DFF302087
:1019C00003F01AFFED2003F023FF642003F014FF5F
:1019D000032003F011FF122003F00EFF812003F01B
:1019E0000BFFE82003F014FF852003F005FF102013
:1019F00003F002FF7A2003F0FFFECB2003F008FF84
:101A0000392003F0F9FE2C2003F0F6FE002003F04D
:101A1000F3FE342003F0F0FE022003F0EDFEF72089
:101A200003F0F6FE202003F0E7FEEA2003F0F0FECC
:101A3000002003F0E1FE002003F0DEFEC02003F0F2
:101A4000E7FE1B2003F0D8FEC12003F0E1FE0120D9
:101A500003F0D2FEC52003F0DBFE302003F0CCFE05
:101A6000302003F0C9FEC72003F0D2FEB72003F0F8
:101A7000C3FE362003F0CCFE482003F0BDFE3A2022
:101A800003F0C6FE552003F0B7FEB1201AE0BFE018
:101A900000100240000C01400414014000F0FF005F
:101AA000BB0B00BB04180140002001401C0100A03A
:101AB00080140020204C43442049443A25780D0AE4
:101AC0000000000003F0A4FE002003F095FE1A20A1
:101AD00003F092FEB62003F09BFE0A2003F08CFE7A
:101AE000A22003F089FEF22003F092FE002003F012
:101AF00083FE262003F08CFE012003F07DFEE02013
:101B000003F086FE0F2003F077FE2A2003F074FE18
:101B1000282003F071FE082003F06EFE0E2003F073
:101B20006BFE082003F068FE542003F065FEA92038
:101B300003F062FE432003F05FFE0A2003F05CFE28
:101B40000F2003F059FE002003F056FE002003F0A2
:101B500053FE002003F050FE002003F04DFEE12074
:101B600003F056FE002003F047FE152003F044FE6C
:101B7000172003F041FE072003F03EFE112003F082
:101B80003BFE062003F038FE2B2003F035FE5620E6
:101B900003F032FE3C2003F02FFE052003F02CFE64
:101BA000102003F029FE0F2003F026FE3F2003F053
:101BB00023FE3F2003F020FE0F2003F01DFE2B200C
:101BC00003F026FE002003F017FE002003F014FEB1
:101BD000012003F011FE3F2003F00EFE2A2003F047
:101BE00017FE002003F008FE002003F005FE002091
:101BF00003F002FEEF2003F0FFFD112003F008FECA
:101C000078200AF059F8292003F002FE03F01AB9EF
:101C1000FE48808846F6040188427CD1112003F0FA
:101C2000F7FD14200AF048F8D02003F0F1FD07205A
:101C300003F0E2FD422003F0DFFD1D2003F0DCFD98
:101C4000D12003F0E5FD002003F0D6FD1A2003F0BB
:101C5000D3FD092003F0D0FDD22003F0D9FD0120EF
:101C600003F0CAFD222003F0C7FDC02003F0D0FD21
:101C7000102003F0C1FD3B2003F0BEFD002003F067
:101C8000BBFD022003F0B8FD112003F0B5FDC52017
:101C900003F0BEFD032003F0AFFDC82003F0B8FD44
:101CA000002003F0A9FD252003F0A6FD212003F06C
:101CB000A3FD052003F0A0FD002003F09DFD0A20F8
:101CC00003F09AFD652003F097FD252003F094FDB5
:101CD000772003F091FD502003F08EFD0F2003F0DC
:101CE0008BFD002003F088FDF82003F091FD01201A
:101CF00003F082FDFE2003F08BFD002003F07CFD4D
:101D0000022003F079FD202003F082FD362003F04D
:101D10007FFD082000E02CE003F06EFD3A2003F088
:101D200077FD552003F068FD2B2003F071FD0020A6
:101D300003F062FD002003F05FFD012003F05CFD75
:101D40003F2003F059FD2A2003F062FD002003F03C
:101D500053FD002003F050FD012003F04DFDDF2076
:101D600003F04AFD782009F0A7FF292003F050FD79
:101D70004CE7A648808845F21031884240F07C87C5
:101D8000ED2003F045FD012003F036FDFE2003F0B9
:101D900033FDEE2003F03CFDDE2003F02DFD21207D
:101DA00003F02AFDF12003F033FD012003F024FDB0
:101DB000DF2003F02DFD102003F01EFDC42003F0F2
:101DC00027FD8F2003F018FDC62003F021FD002021
:101DD00003F012FDE22003F00FFDE22003F00CFD02
:101DE000E22003F009FDBF2003F012FDAA2003F05A
:101DF00003FDB02003F00CFD0D2003F0FDFC0020DE
:101E000003F0FAFC0D2003F0F7FC002003F0F4FCD3
:101E1000112003F0F1FC002003F0EEFC192003F088
:101E2000EBFC002003F0E8FC212003F0E5FC00209F
:101E300003F0E2FC2D2003F0DFFC002003F0DCFCCB
:101E40003D2003F0D9FC002003F0D6FC5D2003F018
:101E5000D3FC002003F0D0FC5D2003F0CDFC00207B
:101E600003F0CAFCB12003F0D3FC802003F0C4FCD3
:101E7000002003F0C1FC8B2003F0BEFC002003F027
:101E8000BBFC962003F0B8FC002003F0B5FCB220A8
:101E900003F0BEFC002003F0AFFC002003F0ACFC1C
:101EA000022003F0A9FC002003F0A6FC032003F0AD
:101EB000A3FC002003F0A0FCB32003F0A9FC002049
:101EC00003F09AFC002003F097FC002003F094FC40
:101ED000002003F091FC002003F08EFC002003F0B2
:101EE0008BFC002003F088FC002003F085FC002020
:101EF00003F082FC002003F07FFC002003F07CFC58
:101F0000002003F079FC002003F076FC002003F0B1
:101F100073FC002003F070FC002003F06DFC002037
:101F200003F06AFC002003F067FC002003F064FC6F
:101F3000002003F061FC002003F05EFC002003F0B1
:101F40005BFC002003F058FC002003F055FCB4209B
:101F500003F05EFC8B2003F04FFC002003F04CFCF0
:101F6000962003F049FC002003F046FCA12003F07A
:101F700043FC002003F040FCB52003F049FC0220A4
:101F800003F03AFC002003F037FC032003F034FC9C
:101F9000002003F031FC042003F02EFC002003F0AD
:101FA0002BFCB62003F034FC002003F025FC0020BD
:101FB00003F022FCB72003F02BFC002003F01CFCF4
:101FC000002003F019FC3F2003F016FC002003F072
:101FD00013FC5E2003F010FC002003F00DFC6420D5
:101FE00003F00AFC002003F007FC8C2003F004FC43
:101FF000002003F001FCAC2003F0FEFB002003F006
:10200000FBFBDC2003F0F8FB002001E08014002043
:1020100003F0F2FB702003F0EFFB002003F0ECFB79
:10202000902003F0E9FB002003F0E6FBEB2003F037
:10203000E3FB002003F0E0FBDC2003F0DDFB0020ED
:1020400003F0DAFBB82003F0E3FB002003F0D4FB3D
:10205000002003F0D1FB002003F0CEFB002003F0B2
:10206000CBFB002003F0C8FB002003F0C5FB0020E1
:1020700003F0C2FB002003F0BFFBBA2003F0C8FB53
:10208000242003F0B9FB002003F0B6FB002003F08E
:10209000B3FB002003F0B0FBC12003F0B9FB20200C
:1020A00003F0AAFB002003F0A7FB542003F0A4FBDD
:1020B000002003F0A1FBFF2003F09EFB002003F0B3
:1020C0009BFBC22003F0A4FB0A2003F095FB002039
:1020D00003F092FB042003F08FFB002003F08CFB45
:1020E000C32003F095FB3C2003F086FB002003F0A7
:1020F00083FB3A2003F080FB002003F07DFB3920B6
:1021000003F07AFB002003F077FB372003F074FB29
:10211000002003F071FB3C2003F06EFB002003F075
:102120006BFB362003F068FB002003F065FB3220D8
:1021300003F062FB002003F05FFB2F2003F05CFB49
:10214000002003F059FB2C2003F056FB002003F085
:1021500053FB292003F050FB002003F04DFB262009
:1021600003F04AFB002003F047FB242003F044FB6C
:10217000002003F041FB242003F03EFB002003F08D
:102180003BFB232003F038FB002003F035FB3C2011
:1021900003F032FB002003F02FFB362003F02CFB72
:1021A000002003F029FB322003F026FB002003F07F
:1021B00023FB2F2003F020FB002003F01DFB2C202D
:1021C00003F01AFB002003F017FB292003F014FB97
:1021D000002003F011FB262003F00EFB002003F08B
:1021E0000BFB242003F008FB002003F005FB242058
:1021F00003F002FB002003F0FFFA232003F0FCFAB7
:10220000002003F0F9FAC42003F002FB622003F07F
:10221000F3FA002003F0F0FA052003F0EDFA0020B5
:1022200003F0EAFA842003F0E7FA002003F0E4FA6E
:10223000F02003F0E1FA002003F0DEFA182003F0AA
:10224000DBFA002003F0D8FAA42003F0D5FA00202E
:1022500003F0D2FA182003F0CFFA002003F0CCFAF2
:10226000502003F0C9FA002003F0C6FA0C2003F056
:10227000C3FA002003F0C0FA172003F0BDFA0020D3
:1022800003F0BAFA952003F0B7FA002003F0B4FA8D
:10229000F32003F0B1FA002003F0AEFAE62003F0D9
:1022A000ABFA002003F0A8FAC52003F0B1FA3220FF
:1022B00003F0A2FA002003F09FFA442003F09CFAF6
:1022C000002003F099FA652003F096FA002003F04D
:1022D00093FA762003F090FA002003F08DFA88201C
:1022E00003F08AFA002003F087FAC62003F090FA80
:1022F000202003F081FA002003F07EFA172003F07B
:102300007BFA002003F078FA012003F075FA002030
:1023100003F072FAC72003F07BFA002003F06CFA96
:10232000002003F069FA002003F066FA002003F0B1
:1023300063FAC82003F06CFA002003F05DFA002075
:1023400003F05AFA002003F057FA002003F054FA81
:10235000C92003F05DFA002003F04EFA002003F0DC
:102360004BFA002003F048FA002003F045FA002061
:1023700003F042FA002003F03FFA002003F03CFA99
:10238000002003F039FA002003F036FA002003F0B1
:1023900033FA002003F030FA002003F02DFA002079
:1023A00003F02AFA002003F027FA002003F024FAB1
:1023B000002003F021FAE02003F02AFA162003F0AF
:1023C0001BFA002003F018FA1C2003F015FA002075
:1023D00003F012FA212003F00FFA002003F00CFAA8
:1023E000362003F009FA002003F006FA462003F035
:1023F00003FA002003F000FA522003F0FDF9002058
:1024000003F0FAF9642003F0F7F9002003F0F4F97F
:102410007A2003F0F1F9002003F0EEF98B2003F0AD
:10242000EBF9002003F0E8F9992003F0E5F900202A
:1024300003F0E2F9A82003F0DFF9002003F0DCF953
:10244000B92003F0D9F9002003F0D6F9C42003F035
:10245000D3F9002003F0D0F9CA2003F0CDF9002011
:1024600003F0CAF9D22003F0C7F9002003F0C4F941
:10247000D92003F0C1F9002003F0BEF9E02003F0F9
:10248000BBF9002003F0B8F9F32003F0B5F9002000
:1024900003F0B2F9E12003F0BBF9162003F0ACF928
:1024A000002003F0A9F91C2003F0A6F9002003F096
:1024B000A3F9222003F0A0F9002003F09DF93620B3
:1024C00003F09AF9002003F097F9452003F094F9FE
:1024D000002003F091F9522003F08EF9002003F060
:1024E0008BF9642003F088F9002003F085F97A2045
:1024F00003F082F9002003F07FF98B2003F07CF9D0
:10250000002003F079F9992003F076F9002003F018
:1025100073F9A82003F070F9002003F06DF9B920D9
:1025200003F06AF9002003F067F9C42003F064F9AE
:10253000002003F061F9CA2003F05EF9002003F0E7
:102540005BF9D22003F058F9002003F055F9D820A8
:1025500003F052F9002003F04FF9E02003F04CF9AA
:10256000002003F049F9F32003F046F9002003F0BE
:1025700043F9E22003F04CF9052003F03DF9002077
:1025800003F03AF90B2003F037F9002003F034F997
:102590001B2003F031F9002003F02EF9342003F062
:1025A0002BF9002003F028F9442003F025F900203E
:1025B00003F022F94F2003F01FF9002003F01CF96B
:1025C000612003F019F9002003F016F9792003F0D7
:1025D00013F9002003F010F9882003F00DF9002012
:1025E00003F00AF9972003F007F9002003F004F93B
:1025F000A62003F001F9002003F0FEF8B72003F055
:10260000FBF8002003F0F8F8C22003F0F5F80020F2
:1026100003F0F2F8C72003F0EFF8002003F0ECF825
:10262000D12003F0E9F8002003F0E6F8D62003F00B
:10263000E3F8002003F0E0F8DD2003F0DDF80020EF
:1026400003F0DAF8F32003F0D7F8002003F0D4F811
:10265000E32003F0DDF8052003F0CEF8002003F0BE
:10266000CBF80A2003F0C8F8002003F0C5F81C20BE
:1026700003F0C2F8002003F0BFF8332003F0BCF8E9
:10268000002003F0B9F8442003F0B6F8002003F06E
:10269000B3F8502003F0B0F8002003F0ADF862204A
:1026A00003F0AAF8002003F0A7F8782003F0A4F8BC
:1026B000002003F0A1F8882003F09EF8002003F02A
:1026C0009BF8972003F098F8002003F095F8A620D7
:1026D00003F092F8002003F08FF8B72003F08CF895
:1026E000002003F089F8C22003F086F8002003F0F0
:1026F00083F8C72003F080F8002003F07DF8D12094
:1027000003F07AF8002003F077F8D52003F074F88E
:10271000002003F071F8DD2003F06EF8002003F0D4
:102720006BF8F32003F068F8002003F065F8E4206C
:1027300003F06EF8012003F05FF8002003F05CF86E
:10274000012003F059F8002003F056F8022003F0AE
:1027500053F8002003F050F82A2003F04DF8002031
:1027600003F04AF83C2003F047F8002003F044F857
:102770004B2003F041F8002003F03EF85D2003F009
:102780003BF8002003F038F8742003F035F80020FF
:1027900003F032F8842003F02FF8002003F02CF827
:1027A000932003F029F8002003F026F8A22003F07C
:1027B00023F8002003F020F8B32003F01DF80020D8
:1027C00003F01AF8BE2003F017F8002003F014F805
:1027D000C42003F011F8002003F00EF8CD2003F020
:1027E0000BF8002003F008F8D32003F005F80020D0
:1027F00003F002F8DD2002F0FFFF002002F0FCFFF2
:10280000F32002F0F9FF002002F0F6FFE52002F0CD
:10281000FFFF002002F0F0FF002002F0EDFF00209B
:1028200002F0EAFF002002F0E7FF022002F0E4FFDE
:10283000002002F0E1FF292002F0DEFF002002F07C
:10284000DBFF3C2002F0D8FF002002F0D5FF4B2038
:1028500002F0D2FF002002F0CFFF5D2002F0CCFF9B
:10286000002002F0C9FF742002F0C6FF002002F031
:10287000C3FF842002F0C0FF002002F0BDFF9320C0
:1028800002F0BAFF002002F0B7FFA22002F0B4FF6E
:10289000002002F0B1FFB32002F0AEFF002002F0F2
:1028A000ABFFBE2002F0A8FF002002F0A5FFC4206D
:1028B00002F0A2FF002002F09FFFCD2002F09CFF5B
:1028C000002002F099FFD32002F096FF002002F0D2
:1028D00093FFDC2002F090FF002002F08DFFF32038
:1028E00002F08AFF002002F087FFE62002F090FF4E
:1028F000112002F081FF002002F07EFF342002F060
:102900007BFF002002F078FF562002F075FF0020C8
:1029100002F072FF762002F06FFF002002F06CFFE1
:10292000772002F069FF002002F066FF662002F0C7
:1029300063FF002002F060FF882002F05DFF0020AE
:1029400002F05AFF992002F057FF002002F054FFD6
:10295000BB2002F051FF002002F04EFF992002F050
:102960004BFF002002F048FF662002F045FF0020E8
:1029700002F042FF552002F03FFF002002F03CFF32
:10298000552002F039FF002002F036FF452002F00A
:1029900033FF002002F030FF432002F02DFF002023
:1029A00002F02AFF442002F027FF002002F024FF5B
:1029B000E72002F02DFF322002F01EFF002002F07F
:1029C0001BFF552002F018FF002002F015FF7620B3
:1029D00002F012FF002002F00FFF662002F00CFF51
:1029E000002002F009FF672002F006FF002002F03D
:1029F00003FF672002F000FF002002F0FDFE8720A9
:102A000002F0FAFE002002F0F7FE992002F0F4FE38
:102A1000002002F0F1FEBB2002F0EEFE002002F0EA
:102A2000EBFE992002F0E8FE002002F0E5FE7720A0
:102A300002F0E2FE002002F0DFFE442002F0DCFEA5
:102A4000002002F0D9FE562002F0D6FE002002F04F
:102A5000D3FE232002F0D0FE002002F0CDFE332072
:102A600002F0CAFE002002F0C7FE452002F0C4FEBC
:102A7000002002F0C1FEE82002F0CAFE002002F0B1
:102A8000BBFE002002F0B8FE992002F0B5FE002047
:102A900002F0B2FE872002F0AFFE002002F0ACFE92
:102AA000882002F0A9FE002002F0A6FE772002F0A6
:102AB000A3FE002002F0A0FE662002F09DFE002092
:102AC00002F09AFE882002F097FE002002F094FEA9
:102AD000AA2002F091FE002002F08EFEBB2002F040
:102AE0008BFE002002F088FE992002F085FE002077
:102AF00002F082FE662002F07FFE002002F07CFEE3
:102B0000552002F079FE002002F076FE552002F0FA
:102B100073FE002002F070FE442002F06DFE0020E3
:102B200002F06AFE442002F067FE002002F064FE1C
:102B3000552002F061FE002002F05EFEE92002F066
:102B400067FEAA2002F058FE002002F055FE002089
:102B500002F052FE002002F04FFE002002F058FE6C
:102B6000AA2002F049FECF2002F052FE002002F01F
:102B700043FE002002F040FE002002F03DFE002057
:102B800002F03AFE002002F037FE002002F034FE90
:102B9000002002F031FE002002F02EFE002002F0A4
:102BA0002BFE002002F028FE002002F025FE00206F
:102BB00002F022FE002002F01FFE002002F01CFEA8
:102BC000002002F019FE002002F016FE002002F0A4
:102BD00013FEF02002F01CFE002002F00DFE50203B
:102BE00002F00AFE002002F007FE002002F004FEC0
:102BF000002002F001FEF32002F00AFE002002F0A5
:102C0000FBFDF92002F004FE062002F0F5FD102085
:102C100002F0F2FD292002F0EFFD002002F0ECFDB1
:102C20003A2002F0F5FD552002F0E6FD112002F0F9
:102C3000EFFD642009F040F8292002F0E9FD35207D
:102C400002F0E6FD002002F0D7FD512002F0E0FD89
:102C5000FF2002F0D1FD532002F0DAFD2C2002F01B
:102C6000CBFD552002F0D4FD822002F0C5FD2C20C2
:102C700002F0CEFD02F0E6B8FE48808845F2105121
:102C800088427DD155214FF4704002F0D7FDAA2132
:102C90004FF2010002F0D2FD52214FF2020002F089
:102CA000CDFD08214FF2030002F0C8FD01214FF2D3
:102CB000040002F0C3FD0D214FF4304002F0BEFDD0
:102CC0000D214BF2010002F0B9FD0D214BF2020083
:102CD00002F0B4FD34214FF4364002F0AFFD342150
:102CE0004BF2016002F0AAFD34214BF2026002F0C7
:102CF000A5FD0D214FF4314002F0A0FD0D214BF256
:102D0000011002F09BFD0D214BF2021002F096FD26
:102D100034214FF4374002F091FD34214BF2017021
:102D200002F08CFD34214BF2027002F087FD00218D
:102D30004FF4324002F082FD00214BF2012002F0FC
:102D40007DFD00214BF2022002F078FD24214FF49A
:102D5000384002F073FD24214BF6010002F06EFDB5
:102D600024214BF6020002F069FD01214FF43F409F
:102D700002F064FD0F214FF4334002F05FFD00E0EC
:102D8000FDE30F214BF2013002F058FD0F214BF211
:102D9000023002F053FD34214FF4394002F04EFD71
:102DA00034214BF6011002F049FD34214BF602109C
:102DB00002F044FD08214FF4354002F03FFD0821A8
:102DC0004BF2015002F03AFD08214BF2025002F0A2
:102DD00035FD03214FF4424002F030FD24214FF431
:102DE0003A4002F02BFD24214BF6012002F026FD93
:102DF00024214BF6022002F021FD00214FF43C403B
:102E000002F01CFD78214BF6014002F017FD002175
:102E10004BF6024002F012FD00214FF43D4002F05B
:102E20000DFD78214BF6015002F008FD00214BF614
:102E3000025002F003FD00214FF43E4002F0FEFC80
:102E400064214BF6016002F0F9FC00214FF451407F
:102E500002F0F4FC33214DF2011002F0EFFC0021EE
:102E60004DF2021002F0EAFC34214DF2031002F0A0
:102E7000E5FC00214DF2041002F0E0FC3A214DF295
:102E8000051002F0DBFC00214DF2061002F0D6FC2A
:102E90004A214DF2071002F0D1FC00214DF208103A
:102EA00002F0CCFC5C214DF2091002F0C7FC0021BD
:102EB0004DF20A1002F0C2FC81214DF20B1002F01B
:102EC000BDFC00214DF20C1002F0B8FCA6214DF221
:102ED0000D1002F0B3FC00214DF20E1002F0AEFC1A
:102EE000E5214DF20F1002F0A9FC01214DF2101066
:102EF00002F0A4FC13214DF2111002F09FFC0121FD
:102F00004DF2121002F09AFC54214DF2131002F00F
:102F100095FC01214DF2141002F090FC82214DF23B
:102F2000151002F08BFC01214DF2161002F086FC08
:102F3000CA214DF2171002F081FC02214DF2181047
:102F400002F07CFC00214DF2191002F077FC022106
:102F50004DF21A1002F072FC01214DF21B1002F02A
:102F60006DFC02214DF21C1002F068FC34214DF280
:102F70001D1002F063FC02214DF21E1002F05EFCF7
:102F800067214DF21F1002F059FC02214DF2201072
:102F900002F054FC84214DF2211002F04FFC02217A
:102FA0004DF2221002F04AFCA4214DF2231002F04F
:102FB00045FC02214DF2241002F040FCB7214DF2F5
:102FC000251002F03BFC02214DF2261002F036FCE7
:102FD000CF214DF2271002F031FC02214DF22810D2
:102FE00002F02CFCDE214DF2291002F027FC022118
:102FF0004DF22A1002F022FCF2214DF22B1002F0C9
:103000001DFC02214DF22C1002F018FCFE214DF2A5
:103010002D1002F013FC03214DF22E1002F00EFCD5
:1030200010214DF22F1002F009FC03214DF2301057
:1030300002F004FC33214DF2311002F0FFFB0321BA
:103040004DF2321002F0FAFB6D214DF2331002F016
:10305000F5FB00214FF4524002F0F0FB33214DF21A
:10306000012002F0EBFB00214DF2022002F0E6FB12
:10307000342101E0801400204DF2032002F0DEFB39
:1030800000214DF2042002F0D9FB3A214DF2052037
:1030900002F0D4FB00214DF2062002F0CFFB4A21C2
:1030A0004DF2072002F0CAFB00214DF2082002F089
:1030B000C5FB5C214DF2092002F0C0FB00214DF25E
:1030C0000A2002F0BBFB81214DF20B2002F0B6FB7F
:1030D00000214DF20C2002F0B1FBA6214DF20D2093
:1030E00002F0ACFB00214DF20E2002F0A7FBE5211F
:1030F0004DF20F2002F0A2FB01214DF2102002F050
:103100009DFB13214DF2112002F098FB01214DF29D
:10311000122002F093FB54214DF2132002F08EFB9B
:1031200001214DF2142002F089FB82214DF215207D
:1031300002F084FB01214DF2162002F07FFBCA2130
:103140004DF2172002F07AFB02214DF2182002F016
:1031500075FB00214DF2192002F070FB02214DF2A7
:103160001A2002F06BFB01214DF21B2002F066FBDE
:1031700002214DF21C2002F061FB34214DF21D2092
:1031800002F05CFB02214DF21E2002F057FB67218A
:103190004DF21F2002F052FB02214DF2202002F0DE
:1031A0004DFB84214DF2212002F048FB02214DF21B
:1031B000222002F043FBA4214DF2232002F03EFB2B
:1031C00002214DF2242002F039FBB7214DF22520D7
:1031D00002F034FB02214DF2262002F02FFBCF211A
:1031E0004DF2272002F02AFB02214DF2282002F0A6
:1031F00025FBDE214DF2292002F020FB02214DF2B9
:103200002A2002F01BFBF2214DF22B2002F016FBCC
:1032100002214DF22C2002F011FBFE214DF22D2057
:1032200002F00CFB03214DF22E2002F007FB1021CF
:103230004DF22F2002F002FB03214DF2302002F06C
:10324000FDFA33214DF2312002F0F8FA03214DF25C
:10325000322002F0F3FA6D214DF2332002F0EEFA43
:1032600000214FF4534002F0E9FA33214DF20130CE
:1032700002F0E4FA00214DF2023002F0DFFA3421CC
:103280004DF2033002F0DAFA00214DF2043002F080
:10329000D5FA3A214DF2053002F0D0FA00214DF274
:1032A000063002F0CBFA4A214DF2073002F0C6FA9E
:1032B00000214DF2083002F0C1FA5C214DF20930D4
:1032C00002F0BCFA00214DF20A3002F0B7FA812177
:1032D0004DF20B3002F0B2FA00214DF20C3002F048
:1032E000ADFAA6214DF20D3002F0A8FA00214DF200
:1032F0000E3002F0A3FAE5214DF20F3002F09EFAF3
:1033000001214DF2103002F099FA13214DF21130E3
:1033100002F094FA01214DF2123002F08FFA54219A
:103320004DF2133002F08AFA01214DF2143002F00E
:1033300085FA82214DF2153002F080FA01214DF21A
:10334000163002F07BFACA214DF2173002F076FAFD
:1033500002214DF2183002F071FA00214DF21930BD
:1033600002F06CFA02214DF21A3002F067FA0121E4
:103370004DF21B3002F062FA02214DF21C3002F0D5
:103380005DFA34214DF21D3002F058FA02214DF25F
:103390001E3002F053FA67214DF21F3002F04EFA50
:1033A00002214DF2203002F049FA84214DF2213001
:1033B00002F044FA02214DF2223002F03FFAA42139
:1033C0004DF2233002F03AFA02214DF2243002F09D
:1033D00035FAB7214DF2253002F030FA02214DF2D4
:1033E000263002F02BFACF214DF2273002F026FAD8
:1033F00002214DF2283002F021FADE214DF229306F
:1034000002F01CFA02214DF22A3002F017FAF221E2
:103410004DF22B3002F012FA02214DF22C3002F064
:103420000DFAFE214DF22D3002F008FA03214DF283
:103430002E3002F003FA10214DF22F3002F0FEF987
:1034400003214DF2303002F0F9F933214DF23130E1
:1034500002F0F4F903214DF2323002F0EFF96D2160
:103460004DF2333002F0EAF900214FF4544002F0FB
:10347000E5F933214DF2014002F0E0F900214DF26F
:10348000024002F0DBF934214DF2034002F0D6F99C
:1034900000214DF2044002F0D1F93A214DF20540ED
:1034A00002F0CCF900214DF2064002F0C7F94A21A2
:1034B0004DF2074002F0C2F900214DF2084002F03F
:1034C000BDF95C214DF2094002F0B8F900214DF23E
:1034D0000A4002F0B3F981214DF20B4002F0AEF93F
:1034E00000214DF20C4002F0A9F9A6214DF20D4049
:1034F00002F0A4F900214DF20E4002F09FF9E521FF
:103500004DF20F4002F09AF901214DF2104002F005
:1035100095F913214DF2114002F090F901214DF27D
:10352000124002F08BF954214DF2134002F086F95B
:1035300001214DF2144002F081F982214DF2154033
:1035400002F07CF901214DF2164002F077F9CA2110
:103550004DF2174002F072F902214DF2184002F0CC
:103560006DF900214DF2194002F068F902214DF287
:103570001A4002F063F901214DF21B4000E006E31E
:1035800002F05CF902214DF21C4002F057F934219F
:103590004DF21D4002F052F902214DF21E4002F0A0
:1035A0004DF967214DF21F4002F048F902214DF21A
:1035B000204002F043F984214DF2214002F03EF90F
:1035C00002214DF2224002F039F9A4214DF22340AC
:1035D00002F034F902214DF2244002F02FF9B72114
:1035E0004DF2254002F02AF902214DF2264002F068
:1035F00025F9CF214DF2274002F020F902214DF2AA
:10360000284002F01BF9DE214DF2294002F016F9A4
:1036100002214DF22A4002F011F9F2214DF22B4025
:1036200002F00CF902214DF22C4002F007F9FE21C4
:103630004DF22D4002F002F903214DF22E4002F02E
:10364000FDF810214DF22F4002F0F8F803214DF261
:10365000304002F0F3F833214DF2314002F0EEF841
:1036600003214DF2324002F0E9F86D214DF2334072
:1036700002F0E4F800214FF4554002F0DFF8332166
:103680004DF2015002F0DAF800214DF2025002F042
:10369000D5F834214DF2035002F0D0F800214DF25C
:1036A000045002F0CBF83A214DF2055002F0C6F872
:1036B00000214DF2065002F0C1F84A214DF20750A8
:1036C00002F0BCF800214DF2085002F0B7F85C217E
:1036D0004DF2095002F0B2F800214DF20A5002F00A
:1036E000ADF881214DF20B5002F0A8F800214DF207
:1036F0000C5002F0A3F8A6214DF20D5002F09EF8F6
:1037000000214DF20E5002F099F8E5214DF20F50D4
:1037100002F094F801214DF2105002F08FF81321BD
:103720004DF2115002F08AF801214DF2125002F0D0
:1037300085F854214DF2135002F080F801214DF22A
:10374000145002F07BF882214DF2155002F076F809
:1037500001214DF2165002F071F8CA214DF21750B6
:1037600002F06CF802214DF2185002F067F80021C7
:103770004DF2195002F062F802214DF21A5002F097
:103780005DF801214DF21B5002F058F802214DF274
:103790001C5002F053F834214DF21D5002F04EF847
:1037A00002214DF21E5002F049F867214DF21F50E0
:1037B00002F044F802214DF2205002F03FF884213B
:1037C0004DF2215002F03AF802214DF2225002F05F
:1037D00035F8A4214DF2235002F030F802214DF2C9
:1037E000245002F02BF8B7214DF2255002F026F8B4
:1037F00002214DF2265002F021F8CF214DF2275040
:1038000002F01CF802214DF2285002F017F8DE21D8
:103810004DF2295002F012F802214DF22A5002F026
:103820000DF8F2214DF22B5002F008F802214DF272
:103830002C5002F003F8FE214DF22D5001F0FEFF56
:1038400003214DF22E5001F0F9FF10214DF22F50BF
:1038500001F0F4FF03214DF2305001F0EFFF33216E
:103860004DF2315001F0EAFF03214DF2325001F0E8
:10387000E5FF6D214DF2335001F0E0FF00214FF4E0
:10388000564001F0DBFF33214DF2016001F0D6FF1D
:1038900000214DF2026001F0D1FF34214DF20360AE
:1038A00001F0CCFF00214DF2046001F0C7FF3A2186
:1038B0004DF2056001F0C2FF00214DF2066001F0FB
:1038C000BDFF4A214DF2076001F0B8FF00214DF223
:1038D000086001F0B3FF5C214DF2096001F0AEFF1A
:1038E00000214DF20A6001F0A9FF81214DF20B6029
:1038F00001F0A4FF00214DF20C6001F09FFFA62112
:103900004DF20D6001F09AFF00214DF20E6001F0C2
:1039100095FFE5214DF20F6001F090FF01214DF27E
:10392000106001F08BFF13214DF2116001F086FF52
:1039300001214DF2126001F081FF54214DF213601C
:1039400001F07CFF01214DF2146001F077FF82212C
:103950004DF2156001F072FF01214DF2166001F089
:103960006DFFCA214DF2176001F068FF02214DF290
:10397000186001F063FF00214DF2196001F05EFF55
:1039800002214DF21A6001F059FF01214DF21B6036
:1039900001F054FF02214DF21C6001F04FFF342171
:1039A0004DF21D6001F04AFF02214DF21E6001F050
:1039B00045FF67214DF21F6001F040FF02214DF2EB
:1039C000206001F03BFF84214DF2216001F036FFC1
:1039D00002214DF2226001F031FFA4214DF223605B
:1039E00001F02CFF02214DF2246001F027FFB721E6
:1039F0004DF2256001F022FF02214DF2266001F018
:103A00001DFFCF214DF2276001F018FF02214DF27A
:103A1000286001F013FFDE214DF2296001F00EFF56
:103A200002214DF22A6001F009FFF2214DF22B60D4
:103A300001F004FF02214DF22C6001F0FFFEFE2197
:103A40004DF22D6001F0FAFE03214DF22E6001F0DF
:103A5000F5FE10214DF22F6001F0F0FE03214DF232
:103A6000306001F0EBFE33214DF2316001F0E6FEF3
:103A700003214DF2326001F0E1FE6D214DF2336021
:103A800001F0DCFE55214FF4704001F0D7FEAA2171
:103A90004FF2010001F0D2FE52214FF2020001F07C
:103AA000CDFE08214FF2030001F0C8FE00214FF2C5
:103AB000040001F0C3FECC214FF4314001F0BEFE02
:103AC00000214BF2011001F0B9FE05214FF4364000
:103AD00001F0B4FE70214FF4374001F0AFFE7021C9
:103AE0004BF2017001F0AAFE01214FF4384001F0C1
:103AF000A5FE03214BF6010001F0A0FE03214BF6C9
:103B0000020001F09BFE03214BF6030001F096FE3C
:103B100002214FF43C4001F091FE00214BF60140A0
:103B200001F08CFE00214BF6024001F087FED0210F
:103B30004FF4494001F082FE02214CF6011001F0E1
:103B40007DFE50214CF6021001F078FE50214CF61B
:103B5000031001F073FE50214CF6041001F06EFECC
:103B600000214FF4545001F069FE55214FF4685084
:103B700001F064FE4FF4885001F04AFE782008F00E
:103B8000D5F84FF4245001F043FE01F05BB9FE4834
:103B9000808849F2253188427ED147F6F001E52040
:103BA00001F04CFE4FF48071012001F047FE4FF40C
:103BB000E061022001F042FE41F23001032001F0F9
:103BC0003DFE0021042001F039FE40F202210820D0
:103BD00001F034FE0021092001F030FE00210A200E
:103BE00001F02CFE00210C2001F028FE00210D2008
:103BF00001F024FE00210F2001F020FE0021102002
:103C000001F01CFE0721112001F018FE00211220F6
:103C100001F014FE0021132001F010FE0021072006
:103C200001F00CFE41F29061102001F007FE40F21D
:103C30002721112001F002FE9D21122001F0FEFD3E
:103C40004FF4C851132001F0F9FD2521292001F07E
:103C5000F5FD0D212B2001F0F1FD0721302001F0B1
:103C6000EDFD40F20331312001F0E8FD0321322067
:103C700001F0E4FD40F20621352001F0DFFD0821CE
:103C8000362001F0DBFD40F20641372001F0D6FD81
:103C90004FF44171382000E057E001F0CFFD0721DB
:103CA000392001F0CBFD40F202613C2001F0C6FD5D
:103CB00008213D2001F0C2FD0021502001F0BEFD91
:103CC000EF21512001F0BAFD0021522001F0B6FD94
:103CD00040F23F11532001F0B1FD4FF42741602025
:103CE00001F0ACFD0121612001F0A8FD00216A2056
:103CF00001F0A4FD0021802001F0A0FD0021812021
:103D000001F09CFD0021822001F098FD002183201C
:103D100001F094FD0021842001F090FD0021852018
:103D200001F08CFD1021902001F088FD4FF4C0615E
:103D3000922001F083FD40F23311072001F07EFD57
:103D40002221002001F07AFD1FE78F48808849F288
:103D5000283188427ED141F28F01EC2001F06EFDC6
:103D600041F23421EF2001F069FD4FF48071012010
:103D700001F064FD4FF4E061022001F05FFD41F2CB
:103D80003001032001F05AFD0021042001F056FD0E
:103D900040F20221082001F051FD0021092001F02C
:103DA0004DFD00210A2001F049FD01210C2001F008
:103DB00045FD00210D2001F041FD00210F2001F003
:103DC0003DFD0021102001F039FD0721112001F0F7
:103DD00035FD0021122001F031FD0021132001F0FA
:103DE0002DFD0121072001F029FD322007F064FF9D
:103DF00041F29041102001F021FD40F227211120D5
:103E000001F01CFD322007F057FF8A21122001F03B
:103E100015FD322007F050FF4FF4D051132001F070
:103E20000DFD0621292001F009FD0D212B2001F0B7
:103E300005FD322007F040FF0021202001F0FEFCAC
:103E40000021212001F0FAFC322007F035FF00218B
:103E5000302000E074E001F0F1FC40F20461312018
:103E600001F0ECFC40F20531322001F0E7FC0021CA
:103E7000352001F0E3FC40F60941362001F0DEFC7C
:103E80004FF40171372001F0D9FC40F201313820A4
:103E900001F0D4FC40F20771392001F0CFFC002181
:103EA0003C2001F0CBFC40F60A213D2001F0C6FC8D
:103EB000322007F001FF0021502001F0BFFCEF216C
:103EC000512001F0BBFC0021522001F0B7FC40F270
:103ED0003F11532001F0B2FC4FF42741602001F064
:103EE000ADFC0121612001F0A9FC00216A2001F054
:103EF000A5FC0021802001F0A1FC0021812001F01F
:103F00009DFC0021822001F099FC0021832001F01A
:103F100095FC0021842001F091FC0021852001F016
:103F20008DFC1021902001F089FC4FF4C06192209B
:103F300001F084FC40F23311072001F07FFC24E6FD
:103F40001148808849F2203188427DD100210846FD
:103F500001F074FC4FF48071012001F06FFC4FF40C
:103F6000E061022001F06AFC41F23001032001F01F
:103F700065FC0021042001F061FC40F202210820D0
:103F800001F05CFC002101E080140020092001F018
:103F900055FC00210A2001F051FC01210C2001F008
:103FA0004DFC00210D2001F049FC00210F2001F003
:103FB00045FC322007F080FE40F20111072001F09D
:103FC0003DFC322007F078FE4FF48651102001F0BE
:103FD00035FC0721112001F031FC4FF488711220CB
:103FE00001F02CFC4FF43061132001F027FC00217C
:103FF000292001F023FC44F210012B2001F01EFCCB
:104000000021502001F01AFCEF21512001F016FC94
:104010000021522001F012FC40F23F11532001F028
:104020000DFC4FF41C51602001F008FC01216120BF
:1040300001F004FC00216A2001F000FC0021802036
:1040400001F0FCFB002100E031E0812001F0F6FBF3
:104050000021822001F0F2FB0021832001F0EEFB21
:104060000021842001F0EAFB0021852001F0E6FB1D
:104070001021902001F0E2FB0021922001F0DEFBF4
:104080000121932001F0DAFB4FF48871952001F0B3
:10409000D5FB0021972001F0D1FB0021982001F0F1
:1040A000CDFB40F27311072001F0C8FB6DE5FE481F
:1040B000808849F2313188427DD141F21401E720F4
:1040C00001F0BCFB4FF48071012001F0B7FB4FF40D
:1040D0000071022001F0B2FB41F23801032001F02F
:1040E000ADFB40F20221082001F0A8FB00210920CD
:1040F00001F0A4FB00210A2001F0A0FB00210C200C
:1041000001F09CFB00210D2001F098FB00210F2005
:1041100001F094FB0021102001F090FB07211120F9
:1041200001F08CFB0021122001F088FB00211320FC
:1041300001F084FBC82007F0BFFD41F29061102020
:1041400001F07CFB40F22721112001F077FB3220A7
:1041500007F0B2FD0C21122001F070FB322007F0B5
:10416000ABFD4FF40061132001F068FB1121292001
:1041700001F064FB0B212B2001F060FB322007F0E3
:104180009BFD0021202001F059FB40F23F1121202E
:1041900001F054FB0021302001F050FB4FF48371FB
:1041A000312001F04BFB0021322001F047FB4FF49E
:1041B0000171352000E064E001F040FB41F20A614A
:1041C000362001F03BFB40F20771372001F036FB4F
:1041D0004FF48371382001F031FB40F20771392030
:1041E00001F02CFB40F202413C2001F027FB40F69D
:1041F0000F413D2001F022FB0021502001F01EFB69
:10420000EF21512001F01AFB0021522001F016FB92
:1042100040F23F11532001F011FB4FF41C5160207C
:1042200001F00CFB0121612001F008FB00216A2054
:1042300001F004FB0021802001F000FB002181201F
:1042400001F0FCFA0021822001F0F8FA002183201D
:1042500001F0F4FA0021842001F0F0FA0021852019
:1042600001F0ECFA1021902001F0E8FA4FF4C0615F
:10427000922001F0E3FA40F23311072001F0DEFA58
:1042800083E48948808845F2084188427ED14FF412
:104290008071012001F0D2FA4FF4E061022001F0B8
:1042A000CDFA41F23001032001F0C8FA00210420C8
:1042B00001F0C4FA40F20721082001F0BFFA002102
:1042C000092001F0BBFA00210A2001F0B7FA002111
:1042D0000C2001F0B3FA00210D2001F0AFFA00210B
:1042E0000F2001F0ABFA142007F0E6FC41F2B061B8
:1042F000102001F0A3FA0121112001F09FFA012101
:10430000172001F09BFA4FF49C71122001F096FAED
:104310004FF40061132001F091FA0921292001F0E6
:104320008DFA09212A2001F089FA0021A42001F048
:1043300085FA0021502001F081FAEF21512001F08F
:104340007DFA0021522001F079FA40F23F1153200A
:1043500001F074FA4FF41C51602001F06FFA012152
:10436000612001F06BFA00216A2001F067FA002158
:10437000802001F063FA0021812001F05FFA002122
:10438000822001F05BFA0021832000E023E001F0AD
:1043900055FA0021842001F051FA0021852001F016
:1043A0004DFA1321902001F049FA0021922001F0EA
:1043B00045FA0321932001F041FA4FF488719520CA
:1043C00001F03CFA40F27311072001F037FA322075
:1043D00007F072FCB8E43448808841F20551884205
:1043E0007ED10021072001F029FA322007F064FC79
:1043F0004FF48E71122001F021FA0121A42001F066
:104400001DFA0F21082001F019FA08210A2001F0F5
:1044100015FA08210D2001F011FA40F20771302041
:1044200001F00CFA0721312001F008FA40F2036193
:10443000322001F003FA4FF4E061332001F0FEF97D
:1044400040F20221342001F0F9F90221352001F077
:10445000F5F941F60F71362001F0F0F940F20771DD
:10446000372001F0EBF90021382001F0E7F90021B5
:10447000392001F0E3F940F207713A2001F0DEF94A
:1044800000213B2001F0DAF907213C2001F0D6F9A8
:1044900000213D2001F0D2F9322007F00DFC01216E
:1044A000072001F0CBF901E0801400200121172042
:1044B00001F0C4F9322007F0FFFB4FF4BD5110208A
:1044C00001F0BCF940F21721112001F0B7F94FF4C7
:1044D0008F71122001F0B2F94FF47061132000E0E7
:1044E00097E001F0ABF900212A2001F0A7F90A2199
:1044F000292001F0A3F94FF49F71122001F09EF9D9
:104500000021502001F09AF9EF21512001F096F995
:104510000021522001F092F940F23F11532001F0A6
:104520008DF94FF41C51602001F088F901216120C0
:1045300001F084F900216A2001F080F90021802037
:1045400001F07CF90021812001F078F9002182201E
:1045500001F074F90021832001F070F9002184201A
:1045600001F06CF90021852001F068F913219020F9
:1045700001F064F94FF44071922001F05FF90521D8
:10458000932001F05BF90021952001F057F90021FB
:10459000972001F053F90021982001F04FF94FF4D2
:1045A0008071012001F04AF94FF4E061022001F02E
:1045B00045F941F23801032001F040F900210420BF
:1045C00001F03CF900210C2001F038F900210F2006
:1045D00001F034F90021202001F030F900212120E0
:1045E00001F02CF92121072001F028F9142007F00F
:1045F00063FB6121072001F021F9142007F05CFB27
:1046000040F27311072001F019F9142007F054FB50
:1046100095E4FE4880884BF2055188427ED1002106
:10462000084601F00BF90021084601F007F90021C6
:10463000084601F003F90021084601F0FFF80121C6
:10464000A42001F0FBF8142007F036FB4FF41C51B6
:10465000602001F0F3F840F20221082001F0EEF8AA
:104660004FF40571302001F0E9F843F21571312063
:1046700001F0E4F840F20461322001F0DFF840F686
:104680001661332001F0DAF842F21121342001F0F2
:10469000D5F84FF4A851352001F0D0F848F2075171
:1046A000362001F0CBF841F20741372001F0C6F87F
:1046B00041F20341382001F0C1F82021392001F0F6
:1046C000BDF81A21902001F0B9F80021102001F066
:1046D000B5F80721112001F0B1F80021122001F0F6
:1046E000ADF80021132001F0A9F8142007F0E4FA36
:1046F0004FF4E661102001F0A1F840F237111120CB
:1047000001F09CF8142007F0D7FA4FF4DC71122066
:1047100001F094F8142007F0CFFA00E083E04FF4A2
:104720007061132001F08AF880212A2001F086F8B8
:104730004821292001F082F8142007F0BDFA4FF437
:104740008071012001F07AF84FF4E061022001F05D
:1047500075F841F23801032001F070F840F20221AF
:10476000082001F06BF800210A2001F067F8002111
:104770000C2001F063F800210D2001F05FF83021DA
:104780000E2001F05BF80021502001F057F8EF21D6
:10479000512001F053F80021522001F04FF840F26F
:1047A0003F11532001F04AF84FF41C51602001F0F2
:1047B00045F80121612001F041F800216A2001F053
:1047C0003DF81121902001F039F84FF4C06192209A
:1047D00001F034F840F20241932001F02FF8022159
:1047E000942001F02BF8142007F066FA012107202D
:1047F00001F024F8142007F05FFA6121072001F08E
:104800001DF840F27311072001F018F80021202054
:1048100001F014F80021212001F010F822210020DD
:1048200001F00CF80EE3794880884CF2055188427B
:104830007ED10021084601F001F80021084600F071
:10484000FDFF142007F038FA0021084600F0F6FFBB
:104850000021084600F0F2FF0021084600F0EEFFBC
:104860000021084600F0EAFF0121A42000F0E6FF45
:10487000142007F021FA4FF41C51602000F0DEFFF5
:1048800040F60601082000F0D9FF40F20371302005
:1048900000F0D4FF0121312000F0D0FF04213220AC
:1048A00000F0CCFF4FF48171332000F0C7FF4FF4CC
:1048B0004071342000F0C2FF40F20311352000F0B7
:1048C000BDFF1F21362000F0B9FF40F203713720F1
:1048D00000F0B4FF0121382000F0B0FF042139209E
:1048E00000F0ACFF1521902000F0A8FF4FF482618A
:1048F000102000F0A3FF40F24721112000F09EFF9E
:104900004FF4DE71122000F099FF4FF46061132024
:1049100000F094FF782007F0CFF94FF48071012068
:1049200000F08CFF4FF40071022000F087FF00E0E0
:1049300050E041F23001032000F080FF08210A20FE
:1049400000F07CFF00210C2000F078FF20210E20D9
:1049500000F074FF00210F2000F070FF00212020E4
:1049600000F06CFF0021212000F068FF3D212A208B
:1049700000F064FF142007F09FF92D21292000F09A
:104980005DFF0021502000F059FF4DF2EF01512052
:1049900000F054FF0021522000F050FF40F23F1180
:1049A000532000F04BFF0021612000F047FF002161
:1049B0006A2000F043FF4FF44071922000F03EFF68
:1049C0000521932000F03AFF4FF48071072000F09A
:1049D00035FF37E20D48808844F2315188427CD15E
:1049E0000121002000F02AFF0A2007F065F941F2BA
:1049F0002861102000F022FF0E21122000F01EFF7F
:104A000040F63921132000F019FF01E08014002046
:104A10000A2007F051F94021112000F00FFF50212A
:104A2000152000F00BFF0A2007F046F91E21122086
:104A300000F004FF0A2007F03FF94FF4B1511020B5
:104A400000F0FCFE42F63921132000F0F7FE0A20A8
:104A500007F032F94FF48071012000F0EFFE4FF4BF
:104A60004071022000F0EAFE41F23801032000F01C
:104A7000E5FE40F20221082000F0E0FE08210A20B5
:104A800000F0DCFE0021302000F0D8FE40F20241B0
:104A9000312000F0D3FE4FF48371322000F0CEFEBF
:104AA00040F20351332000F0C9FE4FF482713420EC
:104AB00000F0C4FE40F20131352000F0BFFE40F2AC
:104AC0000771362000F0BAFE40F20531372000F0C1
:104AD000B5FE4FF40271382000E040E000F0AEFE79
:104AE00040F60B71392000F0A9FE0221412000F0B0
:104AF000A5FE4FF41C51602000F0A0FE01216120B2
:104B000000F09CFE4FF40471902000F097FE4FF4EB
:104B10008571922000F092FE0421932000F08EFE19
:104B20004FF48071A02000F089FE0121072000F0E1
:104B300085FE2121072000F081FE2321072000F0BF
:104B40007DFE3321072000F079FE40F2331107206B
:104B500000F074FE0021A02000F070FE72E1BF485A
:104B6000808844F2355188427ED13021152000F0F2
:104B700065FE10219A2000F061FE2021112000F036
:104B80005DFE43F22841102000F058FE0221122061
:104B900000F054FE41F23801132000F04FFE2820AF
:104BA00007F08AF81221084600F048FE282007F096
:104BB00083F843F22041102000F040FE43F2380118
:104BC000132000F03BFE462007F076F8002130204D
:104BD00000F034FE40F20241312000F02FFE40F29E
:104BE0000731322000F02AFE4FF44171332000F0EB
:104BF00025FE0421342000F021FE40F20141352041
:104C000000F01CFE40F20771362000F017FE40F263
:104C10000531372000F012FE4FF4C261382000F059
:104C20000DFE4FF4C261392000F008FE4FF4807190
:104C3000012000F003FE4FF44071022000F0FEFD61
:104C400041F23001032000F0F9FD40F60801082090
:104C500000F0F4FD08210A2000F0F0FD4FF41C5193
:104C6000602000F0EBFD00E031E00121612000F068
:104C7000E5FD4FF49F71902000F0E0FD4FF480714E
:104C8000922000F0DBFD4FF48071932000F0D6FD00
:104C90004FF44051A02000F0D1FD1021A32000F0DE
:104CA000CDFD0121072000F0C9FD2121072000F0E2
:104CB000C5FD2321072000F0C1FD3321072000F0AE
:104CC000BDFD40F23311072000F0B8FDBAE06348A3
:104CD000808841F663118842F8D1E22000F098FD07
:104CE000232000F089FD022000F086FD042000F062
:104CF00083FD642007F01AF8E02000F089FD012010
:104D000000F07AFD0A2006F0D7FFE02000F080FDD9
:104D1000032000F071FD0C2006F0CEFF012000F012
:104D200077FD0A2006F0C8FFE62000F071FD0320A1
:104D300000F062FDFF2000F05FFDFF2000F05CFD51
:104D4000B02000F065FD202000F056FD002000F0AE
:104D500053FD032000F050FD40F21F3000F04CFDE9
:104D6000012000F049FD40F2DF1000F045FD002079
:104D700000F042FDB42000F04BFD042000F03CFDAB
:104D800040F21F4000F038FD002000F035FDD22039
:104D900000F032FD002000F02FFD002000F02CFD7F
:104DA000002000F029FD002000F026FDB62000F0D4
:104DB0002FFD022000F020FD4FF4037000F01CFDD9
:104DC000002000F019FD222000F016FD092000F05F
:104DD00013FD002000F010FD002000F00DFDF0207C
:104DE00000F016FD032000F007FD292000F010FD63
:104DF000D02000F00DFD002000F0FEFCBE2000F0F1
:104E000007FD052000F0F8FCFE2000F0F5FC012075
:104E100000F0F2FCFF2000F0EFFC002000F0ECFCC2
:104E2000B82000F0F5FC0F2000F0E6FC012000F0B7
:104E3000E3FCBA2000F0ECFC012000F0DDFC642073
:104E400000F0F6F80020FCF7A3F9012004490860FF
:104E50004FF6FF70FCF766F910BD000080140020CB
:104E60008081214210B50246012000E050430B0032
:104E7000A1F10104E1B2F9D110BD000008B5034869
:104E800000880090BDF8000008BD00000008006C1C
:104E90003EB504460D4600200290019000905D480A
:104EA0000088A04203DD5B484088A84201DC002066
:104EB0003EBD2946204600F05BFA5648808849F2FC
:104EC0004131884211D05348808846F60401884217
:104ED0000BD05048808845F21031884205D04D48AB
:104EE000808841F66311884203D12E2000F090FCA7
:104EF0000DE04848808845F21051884204D14FF4B3
:104F0000385000F085FC02E0222000F081FC41488E
:104F1000808849F22031884202D1022007F0B4F99A
:104F2000FFF7ACFF02903B48808841F6631188424E
:104F300002D1BDF80800BBE7022007F0A5F9FFF792
:104F40009DFF02903348808849F2413188420BD05E
:104F50003048808845F21031884205D02D4880883D
:104F600045F21051884210D1022007F08DF9FFF769
:104F700085FF0090BDF80800C0B20190BDF80400A4
:104F80004FF6FF7101EA002001902248808849F223
:104F90002531884216D01F48808844F23551884216
:104FA00010D01C488088091F88420BD0194880887F
:104FB0004BF20551884205D0164880884CF20551C5
:104FC000884202D1BDF8080072E71248808849F291
:104FD000413188420BD00F48808845F21031884219
:104FE00005D00C48808845F2105188420DD1BDF89B
:104FF0000800C012C002BDF80410891240EA411036
:10500000BDF8001040EAE12052E7BDF80800FCF7C7
:105010007BF84DE78014002001B5BDF8000000F0DA
:10502000F7FB052006F082FEFFF728FF08BD000011
:105030002DE9F0470446BE2000F0EAFB052000F011
:10504000DBFB204608F0E1FD07464FF066320C4BD3
:1050500008F0EEFD054608F0ABFD1FFA80F9484662
:1050600000F0CAFB012000F0C7FBFF2000F0C4FBEA
:10507000002000F0C1FB002000F0BEFBBDE8F0877F
:1050800066660440F0B5054600240027B7488079DD
:1050900001280BD1B548808846F60401884205D026
:1050A000B248808841F66311884208D1AF488079C0
:1050B000F0B9AE48808841F66311884218D1082DB6
:1050C00015D2DFE805F00406080A0C0E10120625BA
:1050D0000DE007250BE0042509E0052507E0012583
:1050E00005E0002503E0032501E0022500BF00BF25
:1050F0009E48808849F24131884217D09B48808879
:1051000046F60401884211D09848808845F2103153
:1051100088420BD09548808845F21051884205D0CE
:105120009248808841F6631188427DD1082D1CD2B7
:10513000DFE805F00406090C0F12151800BF14E093
:1051400044F0800411E044F040040EE044F0C00458
:105150000BE044F0200408E044F0600405E044F073
:10516000A00402E044F0E00400BF00BF7F48808854
:1051700045F21051884202D14FF4585700E03627CB
:105180007A48808845F2103188420DD0774880886F
:1051900045F21051884207D07448808841F6631167
:1051A000884201D044F008047048808846F6040123
:1051B000884201D144F002042146384600F03EFB0B
:1051C0006A48808841F6631188421DD004F02000AF
:1051D00068B16648008865494988884214DA63489E
:1051E0000688408861490880084646800CE05F4890
:1051F00000885E494988884206DD5C480688408808
:105200005A490880084646805848808845F210511F
:10521000884254D15549488900F0FAFA002000F03C
:10522000EBFA5249498900E078E0491C88B200F065
:10523000EFFA002000F0E0FA4C494989891C88B255
:1052400000F0E6FA49490988491EC1F30F2000F031
:10525000D3FA46494989C91C88B200F0D9FA4349B2
:105260000978491EC8B200F0C7FA4049888900F0A1
:10527000CFFA002000F0C0FA3C498989491C88B265
:1052800000F0C6FA002000F0B7FA38498989891C75
:1052900088B200F0BDFA35494988491EC1F30F2094
:1052A00000F0AAFA31498989C91C88B200F0B0FA25
:1052B0002E498978491EC8B200F09EFA55E02B4964
:1052C000488900F0A5FA002000F096FA002000F0CE
:1052D00093FA26490988491EC1F30F2000F08CFA81
:1052E00022490978491EC8B200F086FA1F49888908
:1052F00000F08EFA002000F07FFA002000F07CFA27
:105300001A494988491EC1F30F2000F075FA174960
:105310008978491EC8B200F06FFA26E0082D1CD229
:10532000DFE805F004070A0D0F12151844F03004E9
:1053300013E044F0100410E044F020040DE000BF3E
:105340000BE044F0380408E044F0280405E044F0A1
:10535000180402E044F0080400BF00BF032744F42F
:1053600080542146384600F069FAF0BD80140020D0
:1053700030B504460D466748808849F2413188427D
:1053800005D06448808845F21031884214D16149C3
:10539000488900F03DFA201200F02EFAE0B200F049
:1053A0002BFA5C49888900F033FA281200F024FABD
:1053B000E8B200F021FAABE05648808846F60401D6
:1053C00088421DD153488079012804D15148008872
:1053D000401E001B84B24F49488900F019FA201280
:1053E00000F00AFAE0B200F007FA4A49888900F0B2
:1053F0000FFA281200F000FAE8B200F0FDF987E099
:105400004448808841F66311884247D141488079F9
:10541000A8B940480088401E001B84B23D49488915
:1054200000F0F6F9002000F0E7F9002000F0E4F9C0
:10543000201200F0E1F9E0B200F0DEF916E03549A3
:10544000488900F0E5F9201200F0D6F9E0B200F04A
:10545000D3F930490988491EC1F30F2000F0CCF977
:105460002C490978491EC8B200F0C6F92949888933
:1054700000F0CEF9281200F0BFF9E8B200F0BCF954
:1054800024494988491EC1F30F2000F0B5F921498C
:105490008978491EC8B200F0AFF939E01D4880880C
:1054A00045F21051884220D11A49488900F0B0F9DC
:1054B000201200F0A1F917494989491C88B200F06F
:1054C000A7F9E0B200F098F91249888900F0A0F934
:1054D000281200F091F90F498989491C88B200F01F
:1054E00097F9E8B200F088F912E00A4880790128BB
:1054F00004D108480088401E001B84B20549488931
:10550000214600F09BF903498889294600F096F965
:1055100030BD0000801400202DE9F84F80460E4673
:1055200017461C46B3462046E31704EB5373DB10C3
:1055300021464FEAE47C04EB5C7C4FEAEC0CA4EBE4
:10554000CC0CBCF1000F02D04FF0010C01E04FF089
:10555000000C6344224604EBD27C4FEA6C0C03FB44
:105560000CF3DBB20093A7F12000C7B2002556E090
:105570000C2C07D107EB47002B4901EB800010F8FA
:10558000059013E0102C05D1284800EB071010F807
:1055900005900BE0182C07D107EBC700244901EB5D
:1055A000800010F8059001E0BDE8F88F4FF0000A88
:1055B0002FE009F0800030B11E4802883146404695
:1055C000FBF74EFF07E00A9828B91B4802883146CE
:1055D0004046FBF745FF4FEA49604FEA1069701CEF
:1055E00086B216484088B04200DCDDE7A6EB0B002F
:1055F000A0420AD15E4608F101001FFA80F80F4868
:105600000088404500DCCFE706E00AF1010000F029
:10561000FF0ABAF1080FCCDB00BF681CC5B20098C6
:105620008542A5DB00BFBFE72CDE0008A0E2000832
:1056300090E8000856000020580000208014002048
:105640002DE9FF4F81B0074691461E460E9D4FF053
:10565000000A002439E0301B401EC1B20A20FFF7C7
:1056600001FCB9FBF0F00A21B0FBF1F201FB1208DA
:10567000BAF1000F16D1701EA04213DDB8F1000F71
:105680000ED10020AB4605EBDB71491001FB047124
:10569000009088B22B4620220299FFF73DFF12E0CE
:1056A0004FF0010A0020AB4605EBDB71491001FB0E
:1056B0000471009088B208F13001CAB22B460299F9
:1056C000FFF72AFF00BF601CC4B2B442C3DB05B0C1
:1056D000BDE8F08F2DE9F84704460D4690469946FF
:1056E000DDE9096704F0FF0A08EB04001FFA80F8FF
:1056F00009EB05001FFA80F916E0444502DB544629
:10570000A81985B24D4500DB14E0002000903A78DE
:10571000334629462046FFF7FFFE304606EBD071A0
:1057200004EB61018CB27F1C38787E2802DC38786B
:105730002028E2DA00BFBDE8F8872DE9FF4F82B0EC
:10574000064692461F46DDE90F48002001900025DD
:105750004DE0781B401EC1B20A20FFF783FBBAFB65
:10576000F0F00A21B0FBF1F201FB1209019850BBE5
:10577000781EA84227DDB9F1000F22D108F0800081
:1057800078B108F00100A34604EBDB71491001FB7E
:105790000561009088B2234630220399FFF7BCFED2
:1057A0000EE008F00100A34604EBDB71491001FB99
:1057B0000561009088B2234620220399FFF7ACFED2
:1057C00013E00120019008F00100A34604EBDB7117
:1057D000491001FB0561009088B209F13001CAB29D
:1057E00023460399FFF798FE00BF681CC5B2BD426F
:1057F000AFDB06B0BDE8F08F01B5BDF8000000904A
:10580000BDF800000149088008BD00000008006CD8
:1058100001B5BDF800000090BDF800000149088006
:1058200008BD0000FE07006C02480089024908809C
:105830007047000080140020FE07006C03B5BDF81F
:10584000000003490880BDF80400891C08800CBDD5
:10585000FE07006C08B50121482005F0A7FB2020B9
:10586000ADF8000010208DF8030003208DF8020031
:1058700069460948FBF765FA20210748FBF7F7FA64
:105880002020ADF8000069460448FBF75AFA2021B1
:105890000248FBF7ECFA08BD000C0140001801407B
:1058A00000BFFEE730B505460C46224600212846DB
:1058B00000F001F830BD2DE9F04103460C461746D3
:1058C0000FB9BDE8F08103B9FBE70025002202E033
:1058D0002D022543521C042AFAD3384603F0030C48
:1058E0001946BCF1000F08D0624603E001F8014BF5
:1058F000401E521C08B1042AF8D30E4601E020C60F
:10590000001F0428FBD2314602E001F8014B401E83
:105910000028FAD100BFD4E77047000070B500211D
:1059200000230F22C47804B3154C246804F4E06407
:10593000C4F5E064210AC1F10403CA40447804FAC2
:1059400003F184781440214309010E4C0678A155D7
:10595000047804F01F050124AC4005786D11AD00FA
:1059600005F1E025C5F8004109E0047804F01F05C1
:105970000124AC40044D0678761145F8264070BDF0
:105980000CED00E000E400E080E100E002490143AA
:10599000024A1160704700000000FA050CED00E0BB
:1059A000704700002DE9F04104460E4617461D469B
:1059B0004FF0000830480078002804DD42F6E1602E
:1059C0002880BDE8F0811CB945F6C3502880F8E76F
:1059D00000BF00BF00BFFAF74DFC804600BFFBF7D9
:1059E00053F800BF25480078401C24490870084639
:1059F0000078012801D103F043FC00BFFBF75EF8FB
:105A000000BF4046FAF73AFC00BF00BF00BF1C4889
:105A10002060666027620020606204F1080003F0E5
:105A200039F9204602F040FB16480088401C154911
:105A3000088000BF00BF00BFFAF71CFC804600BF13
:105A4000FBF722F800BF0D480078401E0B49087094
:105A50000846007808B903F021FC00BFFBF72EF8D8
:105A600000BF4046FAF70AFC00BF00BF00BF00209D
:105A7000288000BFA5E70000BC0000200C0100202A
:105A8000464C4147E00000202DE9F04F8BB0054621
:105A9000884693469946DDE9147400200190FE483B
:105AA0000078002806DD46F2AE10208000200BB002
:105AB000BDE8F08F25B945F6C35020800020F6E7F9
:105AC00048F20101A9EB0100894536D01ADC40F209
:105AD0000111A9EB010089452BD00CDCB9F1010FB4
